{
  "contractName": "AuctionManager",
  "abi": [
    {
      "inputs": [
        {
          "internalType": "address",
          "name": "_niftyTokenContractAddress",
          "type": "address"
        },
        {
          "internalType": "uint256",
          "name": "_commissionRate",
          "type": "uint256"
        }
      ],
      "stateMutability": "nonpayable",
      "type": "constructor"
    },
    {
      "anonymous": false,
      "inputs": [
        {
          "indexed": false,
          "internalType": "address",
          "name": "_by",
          "type": "address"
        },
        {
          "indexed": false,
          "internalType": "uint256",
          "name": "_amount",
          "type": "uint256"
        },
        {
          "indexed": false,
          "internalType": "uint256",
          "name": "_itemId",
          "type": "uint256"
        },
        {
          "indexed": false,
          "internalType": "uint256",
          "name": "_tokenId",
          "type": "uint256"
        },
        {
          "indexed": false,
          "internalType": "uint256",
          "name": "_totalBidAmount",
          "type": "uint256"
        }
      ],
      "name": "BidPlaced",
      "type": "event"
    },
    {
      "anonymous": false,
      "inputs": [
        {
          "indexed": true,
          "internalType": "address",
          "name": "_to",
          "type": "address"
        },
        {
          "indexed": true,
          "internalType": "uint256",
          "name": "_amount",
          "type": "uint256"
        },
        {
          "indexed": true,
          "internalType": "address",
          "name": "_by",
          "type": "address"
        }
      ],
      "name": "CommissionTransfered",
      "type": "event"
    },
    {
      "anonymous": false,
      "inputs": [
        {
          "indexed": true,
          "internalType": "uint256",
          "name": "_listId",
          "type": "uint256"
        },
        {
          "indexed": true,
          "internalType": "uint256",
          "name": "_itemId",
          "type": "uint256"
        },
        {
          "indexed": true,
          "internalType": "uint256",
          "name": "_tokenId",
          "type": "uint256"
        },
        {
          "indexed": false,
          "internalType": "uint256",
          "name": "_biddingEndTimestamp",
          "type": "uint256"
        },
        {
          "indexed": false,
          "internalType": "address",
          "name": "_by",
          "type": "address"
        }
      ],
      "name": "ItemListed",
      "type": "event"
    },
    {
      "anonymous": false,
      "inputs": [
        {
          "indexed": true,
          "internalType": "address",
          "name": "_to",
          "type": "address"
        },
        {
          "indexed": true,
          "internalType": "uint256",
          "name": "_amount",
          "type": "uint256"
        },
        {
          "indexed": false,
          "internalType": "uint256",
          "name": "_commission",
          "type": "uint256"
        },
        {
          "indexed": true,
          "internalType": "uint256",
          "name": "_listId",
          "type": "uint256"
        },
        {
          "indexed": false,
          "internalType": "uint256",
          "name": "_itemId",
          "type": "uint256"
        },
        {
          "indexed": false,
          "internalType": "uint256",
          "name": "_tokenId",
          "type": "uint256"
        }
      ],
      "name": "MoneyTransfered",
      "type": "event"
    },
    {
      "anonymous": false,
      "inputs": [
        {
          "indexed": true,
          "internalType": "address",
          "name": "_to",
          "type": "address"
        },
        {
          "indexed": true,
          "internalType": "uint256",
          "name": "_amount",
          "type": "uint256"
        },
        {
          "indexed": true,
          "internalType": "uint256",
          "name": "_listId",
          "type": "uint256"
        },
        {
          "indexed": false,
          "internalType": "uint256",
          "name": "_itemId",
          "type": "uint256"
        },
        {
          "indexed": false,
          "internalType": "uint256",
          "name": "_tokenId",
          "type": "uint256"
        }
      ],
      "name": "RemainingAmountTransfered",
      "type": "event"
    },
    {
      "anonymous": false,
      "inputs": [
        {
          "indexed": true,
          "internalType": "address",
          "name": "_from",
          "type": "address"
        },
        {
          "indexed": true,
          "internalType": "address",
          "name": "_to",
          "type": "address"
        },
        {
          "indexed": true,
          "internalType": "uint256",
          "name": "_listId",
          "type": "uint256"
        },
        {
          "indexed": false,
          "internalType": "uint256",
          "name": "_itemId",
          "type": "uint256"
        },
        {
          "indexed": false,
          "internalType": "uint256",
          "name": "_tokenId",
          "type": "uint256"
        }
      ],
      "name": "TokenTransfered",
      "type": "event"
    },
    {
      "anonymous": false,
      "inputs": [
        {
          "indexed": true,
          "internalType": "address",
          "name": "_by",
          "type": "address"
        },
        {
          "indexed": true,
          "internalType": "address",
          "name": "_to",
          "type": "address"
        },
        {
          "indexed": false,
          "internalType": "uint256",
          "name": "_amount",
          "type": "uint256"
        },
        {
          "indexed": true,
          "internalType": "uint256",
          "name": "_listId",
          "type": "uint256"
        },
        {
          "indexed": false,
          "internalType": "uint256",
          "name": "_itemId",
          "type": "uint256"
        },
        {
          "indexed": false,
          "internalType": "uint256",
          "name": "_tokenId",
          "type": "uint256"
        },
        {
          "indexed": false,
          "internalType": "uint256",
          "name": "_totalBidAmountNow",
          "type": "uint256"
        }
      ],
      "name": "Withdrawal",
      "type": "event"
    },
    {
      "inputs": [],
      "name": "getOwner",
      "outputs": [
        {
          "internalType": "address",
          "name": "",
          "type": "address"
        }
      ],
      "stateMutability": "view",
      "type": "function",
      "constant": true
    },
    {
      "inputs": [
        {
          "internalType": "uint256",
          "name": "",
          "type": "uint256"
        }
      ],
      "name": "itemList",
      "outputs": [
        {
          "internalType": "uint256",
          "name": "id",
          "type": "uint256"
        },
        {
          "internalType": "uint256",
          "name": "tokenId",
          "type": "uint256"
        },
        {
          "internalType": "uint256",
          "name": "biddingEndTimestamp",
          "type": "uint256"
        },
        {
          "internalType": "address",
          "name": "owner",
          "type": "address"
        },
        {
          "internalType": "uint256",
          "name": "highestBid",
          "type": "uint256"
        },
        {
          "internalType": "address",
          "name": "highestBidder",
          "type": "address"
        },
        {
          "internalType": "bool",
          "name": "settled",
          "type": "bool"
        }
      ],
      "stateMutability": "view",
      "type": "function",
      "constant": true
    },
    {
      "inputs": [
        {
          "internalType": "uint256",
          "name": "_tokenId",
          "type": "uint256"
        },
        {
          "internalType": "uint256",
          "name": "_biddingEndTimestamp",
          "type": "uint256"
        }
      ],
      "name": "listItem",
      "outputs": [],
      "stateMutability": "nonpayable",
      "type": "function"
    },
    {
      "inputs": [
        {
          "internalType": "uint256",
          "name": "_listId",
          "type": "uint256"
        }
      ],
      "name": "bidItem",
      "outputs": [],
      "stateMutability": "payable",
      "type": "function",
      "payable": true
    },
    {
      "inputs": [
        {
          "internalType": "uint256",
          "name": "_listId",
          "type": "uint256"
        },
        {
          "internalType": "address",
          "name": "_by",
          "type": "address"
        }
      ],
      "name": "lastBidAmount",
      "outputs": [
        {
          "internalType": "uint256",
          "name": "",
          "type": "uint256"
        }
      ],
      "stateMutability": "view",
      "type": "function",
      "constant": true
    },
    {
      "inputs": [
        {
          "internalType": "uint256",
          "name": "_listId",
          "type": "uint256"
        },
        {
          "internalType": "address",
          "name": "_by",
          "type": "address"
        }
      ],
      "name": "totalBidAmount",
      "outputs": [
        {
          "internalType": "uint256",
          "name": "",
          "type": "uint256"
        }
      ],
      "stateMutability": "view",
      "type": "function",
      "constant": true
    },
    {
      "inputs": [
        {
          "internalType": "uint256",
          "name": "_listId",
          "type": "uint256"
        }
      ],
      "name": "highestBid",
      "outputs": [
        {
          "internalType": "uint256",
          "name": "",
          "type": "uint256"
        }
      ],
      "stateMutability": "view",
      "type": "function",
      "constant": true
    },
    {
      "inputs": [
        {
          "internalType": "uint256",
          "name": "_listId",
          "type": "uint256"
        }
      ],
      "name": "highestBidder",
      "outputs": [
        {
          "internalType": "address",
          "name": "",
          "type": "address"
        }
      ],
      "stateMutability": "view",
      "type": "function",
      "constant": true
    },
    {
      "inputs": [
        {
          "internalType": "uint256",
          "name": "_listId",
          "type": "uint256"
        }
      ],
      "name": "withdraw",
      "outputs": [],
      "stateMutability": "nonpayable",
      "type": "function"
    },
    {
      "inputs": [
        {
          "internalType": "uint256",
          "name": "_listId",
          "type": "uint256"
        }
      ],
      "name": "settleAuction",
      "outputs": [],
      "stateMutability": "nonpayable",
      "type": "function"
    },
    {
      "inputs": [],
      "name": "getBalance",
      "outputs": [
        {
          "internalType": "uint256",
          "name": "",
          "type": "uint256"
        }
      ],
      "stateMutability": "view",
      "type": "function",
      "constant": true
    },
    {
      "inputs": [],
      "name": "getCommission",
      "outputs": [
        {
          "internalType": "uint256",
          "name": "",
          "type": "uint256"
        }
      ],
      "stateMutability": "view",
      "type": "function",
      "constant": true
    },
    {
      "inputs": [],
      "name": "getCommissionRate",
      "outputs": [
        {
          "internalType": "uint256",
          "name": "",
          "type": "uint256"
        }
      ],
      "stateMutability": "view",
      "type": "function",
      "constant": true
    },
    {
      "inputs": [
        {
          "internalType": "uint256",
          "name": "_commissionRate",
          "type": "uint256"
        }
      ],
      "name": "setCommissionRate",
      "outputs": [],
      "stateMutability": "nonpayable",
      "type": "function"
    },
    {
      "inputs": [],
      "name": "getNiftyTokenContractAddress",
      "outputs": [
        {
          "internalType": "address",
          "name": "",
          "type": "address"
        }
      ],
      "stateMutability": "view",
      "type": "function",
      "constant": true
    },
    {
      "inputs": [
        {
          "internalType": "address",
          "name": "_niftyTokenContractAddress",
          "type": "address"
        }
      ],
      "name": "setNiftyTokenContractAddress",
      "outputs": [],
      "stateMutability": "nonpayable",
      "type": "function"
    },
    {
      "inputs": [],
      "name": "withdrawCommission",
      "outputs": [],
      "stateMutability": "nonpayable",
      "type": "function"
    },
    {
      "inputs": [],
      "name": "getPaused",
      "outputs": [
        {
          "internalType": "bool",
          "name": "",
          "type": "bool"
        }
      ],
      "stateMutability": "view",
      "type": "function",
      "constant": true
    },
    {
      "inputs": [],
      "name": "pause",
      "outputs": [],
      "stateMutability": "nonpayable",
      "type": "function"
    },
    {
      "inputs": [],
      "name": "unpause",
      "outputs": [],
      "stateMutability": "nonpayable",
      "type": "function"
    }
  ],
  "bytecode": "0x60806040523480156200001157600080fd5b5060405162003b3838038062003b388339818101604052810190620000379190620001b2565b336000806101000a81548173ffffffffffffffffffffffffffffffffffffffff021916908373ffffffffffffffffffffffffffffffffffffffff1602179055506200008881620000f360201b60201c565b81600360006101000a81548173ffffffffffffffffffffffffffffffffffffffff021916908373ffffffffffffffffffffffffffffffffffffffff160217905550806002819055506000600960006101000a81548160ff0219169083151502179055505050620002da565b60008110156200013a576040517f08c379a0000000000000000000000000000000000000000000000000000000008152600401620001319062000235565b60405180910390fd5b606481111562000181576040517f08c379a0000000000000000000000000000000000000000000000000000000008152600401620001789062000235565b60405180910390fd5b50565b6000815190506200019581620002a6565b92915050565b600081519050620001ac81620002c0565b92915050565b60008060408385031215620001c657600080fd5b6000620001d68582860162000184565b9250506020620001e9858286016200019b565b9150509250929050565b60006200020260178362000257565b91507f496e76616c696420636f6d6d697373696f6e20726174650000000000000000006000830152602082019050919050565b600060208201905081810360008301526200025081620001f3565b9050919050565b600082825260208201905092915050565b600062000275826200027c565b9050919050565b600073ffffffffffffffffffffffffffffffffffffffff82169050919050565b6000819050919050565b620002b18162000268565b8114620002bd57600080fd5b50565b620002cb816200029c565b8114620002d757600080fd5b50565b61384e80620002ea6000396000f3fe60806040526004361061011f5760003560e01c8063451df52e116100a0578063893d20e811610064578063893d20e8146103a4578063b14c63c5146103cf578063cc2589cf1461040c578063e65d6b4914610437578063ff15ebaf146104625761011f565b8063451df52e146102bf578063551d806e146102fc5780636805b84b146103395780638456cb5914610364578063883efa671461037b5761011f565b806336d64076116100e757806336d64076146102075780633d4d3600146102235780633e25e837146102665780633e4eb36c1461027d5780633f4ba83a146102a85761011f565b80630f3aab721461012457806312065fe01461016157806319fac8fd1461018c5780632e1a7d4d146101b55780632e993611146101de575b600080fd5b34801561013057600080fd5b5061014b60048036038101906101469190612b23565b61048b565b60405161015891906134c6565b60405180910390f35b34801561016d57600080fd5b50610176610642565b60405161018391906134c6565b60405180910390f35b34801561019857600080fd5b506101b360048036038101906101ae9190612afa565b6106d9565b005b3480156101c157600080fd5b506101dc60048036038101906101d79190612afa565b61077a565b005b3480156101ea57600080fd5b5061020560048036038101906102009190612afa565b610c34565b005b610221600480360381019061021c9190612afa565b61141c565b005b34801561022f57600080fd5b5061024a60048036038101906102459190612afa565b61184d565b60405161025d979695949392919061356a565b60405180910390f35b34801561027257600080fd5b5061027b6118dc565b005b34801561028957600080fd5b50610292611b96565b60405161029f91906134c6565b60405180910390f35b3480156102b457600080fd5b506102bd611c2f565b005b3480156102cb57600080fd5b506102e660048036038101906102e19190612afa565b611cda565b6040516102f39190613186565b60405180910390f35b34801561030857600080fd5b50610323600480360381019061031e9190612b23565b611e40565b60405161033091906134c6565b60405180910390f35b34801561034557600080fd5b5061034e6120c3565b60405161035b919061322b565b60405180910390f35b34801561037057600080fd5b50610379612169565b005b34801561038757600080fd5b506103a2600480360381019061039d9190612b5f565b612214565b005b3480156103b057600080fd5b506103b9612553565b6040516103c69190613186565b60405180910390f35b3480156103db57600080fd5b506103f660048036038101906103f19190612afa565b61257c565b60405161040391906134c6565b60405180910390f35b34801561041857600080fd5b506104216126e2565b60405161042e9190613186565b60405180910390f35b34801561044357600080fd5b5061044c61279b565b60405161045991906134c6565b60405180910390f35b34801561046e57600080fd5b5061048960048036038101906104849190612aa8565b612834565b005b600080600860008581526020019081526020016000206040518060e00160405290816000820154815260200160018201548152602001600282015481526020016003820160009054906101000a900473ffffffffffffffffffffffffffffffffffffffff1673ffffffffffffffffffffffffffffffffffffffff1673ffffffffffffffffffffffffffffffffffffffff168152602001600482015481526020016005820160009054906101000a900473ffffffffffffffffffffffffffffffffffffffff1673ffffffffffffffffffffffffffffffffffffffff1673ffffffffffffffffffffffffffffffffffffffff1681526020016005820160149054906101000a900460ff161515151581525050905060008160000151116105e4576040517f08c379a00000000000000000000000000000000000000000000000000000000081526004016105db90613306565b60405180910390fd5b600660008260000151815260200190815260200160002060008473ffffffffffffffffffffffffffffffffffffffff1673ffffffffffffffffffffffffffffffffffffffff1681526020019081526020016000205491505092915050565b60008060009054906101000a900473ffffffffffffffffffffffffffffffffffffffff1673ffffffffffffffffffffffffffffffffffffffff163373ffffffffffffffffffffffffffffffffffffffff16146106d3576040517f08c379a00000000000000000000000000000000000000000000000000000000081526004016106ca906133c6565b60405180910390fd5b47905090565b60008054906101000a900473ffffffffffffffffffffffffffffffffffffffff1673ffffffffffffffffffffffffffffffffffffffff163373ffffffffffffffffffffffffffffffffffffffff1614610767576040517f08c379a000000000000000000000000000000000000000000000000000000000815260040161075e906133c6565b60405180910390fd5b61077081612906565b8060028190555050565b60001515600960009054906101000a900460ff161515146107d0576040517f08c379a00000000000000000000000000000000000000000000000000000000081526004016107c790613486565b60405180910390fd5b6000600860008381526020019081526020016000206040518060e00160405290816000820154815260200160018201548152602001600282015481526020016003820160009054906101000a900473ffffffffffffffffffffffffffffffffffffffff1673ffffffffffffffffffffffffffffffffffffffff1673ffffffffffffffffffffffffffffffffffffffff168152602001600482015481526020016005820160009054906101000a900473ffffffffffffffffffffffffffffffffffffffff1673ffffffffffffffffffffffffffffffffffffffff1673ffffffffffffffffffffffffffffffffffffffff1681526020016005820160149054906101000a900460ff16151515158152505090506000339050600082600001511161092d576040517f08c379a000000000000000000000000000000000000000000000000000000000815260040161092490613306565b60405180910390fd5b81604001514211610973576040517f08c379a000000000000000000000000000000000000000000000000000000000815260040161096a90613246565b60405180910390fd5b8160a0015173ffffffffffffffffffffffffffffffffffffffff168173ffffffffffffffffffffffffffffffffffffffff1614156109e6576040517f08c379a00000000000000000000000000000000000000000000000000000000081526004016109dd906132e6565b60405180910390fd5b6000600660008460000151815260200190815260200160002060008373ffffffffffffffffffffffffffffffffffffffff1673ffffffffffffffffffffffffffffffffffffffff16815260200190815260200160002054905060008111610a82576040517f08c379a0000000000000000000000000000000000000000000000000000000008152600401610a7990613446565b60405180910390fd5b80471015610ac5576040517f08c379a0000000000000000000000000000000000000000000000000000000008152600401610abc906133e6565b60405180910390fd5b6000600660008560000151815260200190815260200160002060008473ffffffffffffffffffffffffffffffffffffffff1673ffffffffffffffffffffffffffffffffffffffff16815260200190815260200160002081905550838273ffffffffffffffffffffffffffffffffffffffff163373ffffffffffffffffffffffffffffffffffffffff167f2ded5e48c30472e07c5bb1db8547099d3d6c43e72e5d9e68727f0cf5404db37c8487600001518860200151600660008b60000151815260200190815260200160002060008a73ffffffffffffffffffffffffffffffffffffffff1673ffffffffffffffffffffffffffffffffffffffff16815260200190815260200160002054604051610bdf94939291906135d9565b60405180910390a48173ffffffffffffffffffffffffffffffffffffffff166108fc829081150290604051600060405180830381858888f19350505050158015610c2d573d6000803e3d6000fd5b5050505050565b60001515600960009054906101000a900460ff16151514610c8a576040517f08c379a0000000000000000000000000000000000000000000000000000000008152600401610c8190613486565b60405180910390fd5b60006008600083815260200190815260200160002090506000816000015411610ce8576040517f08c379a0000000000000000000000000000000000000000000000000000000008152600401610cdf90613306565b60405180910390fd5b80600201544211610d2e576040517f08c379a0000000000000000000000000000000000000000000000000000000008152600401610d2590613246565b60405180910390fd5b6000816004015411610d75576040517f08c379a0000000000000000000000000000000000000000000000000000000008152600401610d6c90613366565b60405180910390fd5b8060050160009054906101000a900473ffffffffffffffffffffffffffffffffffffffff1673ffffffffffffffffffffffffffffffffffffffff163373ffffffffffffffffffffffffffffffffffffffff161480610e2257508060030160009054906101000a900473ffffffffffffffffffffffffffffffffffffffff1673ffffffffffffffffffffffffffffffffffffffff163373ffffffffffffffffffffffffffffffffffffffff16145b610e61576040517f08c379a0000000000000000000000000000000000000000000000000000000008152600401610e5890613286565b60405180910390fd5b600015158160050160149054906101000a900460ff16151514610eb9576040517f08c379a0000000000000000000000000000000000000000000000000000000008152600401610eb0906132c6565b60405180910390fd5b6000600660008360000154815260200190815260200160002060008360050160009054906101000a900473ffffffffffffffffffffffffffffffffffffffff1673ffffffffffffffffffffffffffffffffffffffff1673ffffffffffffffffffffffffffffffffffffffff16815260200190815260200160002054905060008111610f79576040517f08c379a0000000000000000000000000000000000000000000000000000000008152600401610f7090613466565b60405180910390fd5b6000826004015490506000610f9082600254612991565b9050610fa58183612a0390919063ffffffff16565b915082471015610fea576040517f08c379a0000000000000000000000000000000000000000000000000000000008152600401610fe1906133e6565b60405180910390fd5b8060016000828254610ffc919061362f565b9250508190555060018460050160146101000a81548160ff0219169083151502179055506000600660008660000154815260200190815260200160002060008660050160009054906101000a900473ffffffffffffffffffffffffffffffffffffffff1673ffffffffffffffffffffffffffffffffffffffff1673ffffffffffffffffffffffffffffffffffffffff1681526020019081526020016000208190555060008460030160009054906101000a900473ffffffffffffffffffffffffffffffffffffffff16905060008560050160009054906101000a900473ffffffffffffffffffffffffffffffffffffffff169050868660050160009054906101000a900473ffffffffffffffffffffffffffffffffffffffff1673ffffffffffffffffffffffffffffffffffffffff168760030160009054906101000a900473ffffffffffffffffffffffffffffffffffffffff1673ffffffffffffffffffffffffffffffffffffffff167fa28eec1e85a46c263c6095e4904166e207a7faf30a633d3d13e812051d87714389600001548a600101546040516111a092919061350a565b60405180910390a486848373ffffffffffffffffffffffffffffffffffffffff167f175e3b4534afd7396f6d79665243574854327bfc388b771a3c5a2cf50cad152c868a600001548b600101546040516111fc93929190613533565b60405180910390a4600061121d876004015487612a0390919063ffffffff16565b905060008111156112ee5787818860050160009054906101000a900473ffffffffffffffffffffffffffffffffffffffff1673ffffffffffffffffffffffffffffffffffffffff167f8bb1538c793d076f063df2847cf49fc4818972d119b4847ea197b428ac9bbac18a600001548b6001015460405161129e92919061350a565b60405180910390a48173ffffffffffffffffffffffffffffffffffffffff166108fc829081150290604051600060405180830381858888f193505050501580156112ec573d6000803e3d6000fd5b505b600360009054906101000a900473ffffffffffffffffffffffffffffffffffffffff1673ffffffffffffffffffffffffffffffffffffffff166342842e0e8860030160009054906101000a900473ffffffffffffffffffffffffffffffffffffffff168960050160009054906101000a900473ffffffffffffffffffffffffffffffffffffffff168a600101546040518463ffffffff1660e01b8152600401611399939291906131a1565b600060405180830381600087803b1580156113b357600080fd5b505af11580156113c7573d6000803e3d6000fd5b505050508273ffffffffffffffffffffffffffffffffffffffff166108fc869081150290604051600060405180830381858888f19350505050158015611411573d6000803e3d6000fd5b505050505050505050565b60001515600960009054906101000a900460ff16151514611472576040517f08c379a000000000000000000000000000000000000000000000000000000000815260040161146990613486565b60405180910390fd5b6000600860008381526020019081526020016000209050600034905060008260000154116114d5576040517f08c379a00000000000000000000000000000000000000000000000000000000081526004016114cc90613306565b60405180910390fd5b8160030160009054906101000a900473ffffffffffffffffffffffffffffffffffffffff1673ffffffffffffffffffffffffffffffffffffffff163373ffffffffffffffffffffffffffffffffffffffff161415611568576040517f08c379a000000000000000000000000000000000000000000000000000000000815260040161155f90613266565b60405180910390fd5b81600201544211156115af576040517f08c379a00000000000000000000000000000000000000000000000000000000081526004016115a690613386565b60405180910390fd5b816004015481116115f5576040517f08c379a00000000000000000000000000000000000000000000000000000000081526004016115ec906134a6565b60405180910390fd5b600060405180604001604052808381526020013373ffffffffffffffffffffffffffffffffffffffff168152509050600560008460000154815260200190815260200160002060003373ffffffffffffffffffffffffffffffffffffffff1673ffffffffffffffffffffffffffffffffffffffff1681526020019081526020016000208190806001815401808255809150506001900390600052602060002090600202016000909190919091506000820151816000015560208201518160010160006101000a81548173ffffffffffffffffffffffffffffffffffffffff021916908373ffffffffffffffffffffffffffffffffffffffff160217905550505081600660008560000154815260200190815260200160002060003373ffffffffffffffffffffffffffffffffffffffff1673ffffffffffffffffffffffffffffffffffffffff1681526020019081526020016000206000828254611759919061362f565b92505081905550818360040181905550338360050160006101000a81548173ffffffffffffffffffffffffffffffffffffffff021916908373ffffffffffffffffffffffffffffffffffffffff1602179055507f76c0839505115008147bd735b67477eb7de5861004ab444eed30608e5d1493d4338385600001548660010154600660008960000154815260200190815260200160002060003373ffffffffffffffffffffffffffffffffffffffff1673ffffffffffffffffffffffffffffffffffffffff1681526020019081526020016000205460405161183f9594939291906131d8565b60405180910390a150505050565b60086020528060005260406000206000915090508060000154908060010154908060020154908060030160009054906101000a900473ffffffffffffffffffffffffffffffffffffffff16908060040154908060050160009054906101000a900473ffffffffffffffffffffffffffffffffffffffff16908060050160149054906101000a900460ff16905087565b60008054906101000a900473ffffffffffffffffffffffffffffffffffffffff1673ffffffffffffffffffffffffffffffffffffffff163373ffffffffffffffffffffffffffffffffffffffff161461196a576040517f08c379a0000000000000000000000000000000000000000000000000000000008152600401611961906133c6565b60405180910390fd5b60006001549050600061197b612553565b90506000819050600083116119c5576040517f08c379a00000000000000000000000000000000000000000000000000000000081526004016119bc90613326565b60405180910390fd5b600073ffffffffffffffffffffffffffffffffffffffff168173ffffffffffffffffffffffffffffffffffffffff161415611a35576040517f08c379a0000000000000000000000000000000000000000000000000000000008152600401611a2c906133a6565b60405180910390fd5b3073ffffffffffffffffffffffffffffffffffffffff168173ffffffffffffffffffffffffffffffffffffffff161415611aa4576040517f08c379a0000000000000000000000000000000000000000000000000000000008152600401611a9b90613406565b60405180910390fd5b82471015611ae7576040517f08c379a0000000000000000000000000000000000000000000000000000000008152600401611ade906133e6565b60405180910390fd5b60006001819055503373ffffffffffffffffffffffffffffffffffffffff16838373ffffffffffffffffffffffffffffffffffffffff167f437bacd84f6b52ae9b6aba5618f3378deef951bfca75859e8c2abcaac3b0a21d60405160405180910390a48073ffffffffffffffffffffffffffffffffffffffff166108fc849081150290604051600060405180830381858888f19350505050158015611b90573d6000803e3d6000fd5b50505050565b60008060009054906101000a900473ffffffffffffffffffffffffffffffffffffffff1673ffffffffffffffffffffffffffffffffffffffff163373ffffffffffffffffffffffffffffffffffffffff1614611c27576040517f08c379a0000000000000000000000000000000000000000000000000000000008152600401611c1e906133c6565b60405180910390fd5b600254905090565b60008054906101000a900473ffffffffffffffffffffffffffffffffffffffff1673ffffffffffffffffffffffffffffffffffffffff163373ffffffffffffffffffffffffffffffffffffffff1614611cbd576040517f08c379a0000000000000000000000000000000000000000000000000000000008152600401611cb4906133c6565b60405180910390fd5b6000600960006101000a81548160ff021916908315150217905550565b600080600860008481526020019081526020016000206040518060e00160405290816000820154815260200160018201548152602001600282015481526020016003820160009054906101000a900473ffffffffffffffffffffffffffffffffffffffff1673ffffffffffffffffffffffffffffffffffffffff1673ffffffffffffffffffffffffffffffffffffffff168152602001600482015481526020016005820160009054906101000a900473ffffffffffffffffffffffffffffffffffffffff1673ffffffffffffffffffffffffffffffffffffffff1673ffffffffffffffffffffffffffffffffffffffff1681526020016005820160149054906101000a900460ff16151515158152505090506000816000015111611e33576040517f08c379a0000000000000000000000000000000000000000000000000000000008152600401611e2a90613306565b60405180910390fd5b8060a00151915050919050565b600080600860008581526020019081526020016000206040518060e00160405290816000820154815260200160018201548152602001600282015481526020016003820160009054906101000a900473ffffffffffffffffffffffffffffffffffffffff1673ffffffffffffffffffffffffffffffffffffffff1673ffffffffffffffffffffffffffffffffffffffff168152602001600482015481526020016005820160009054906101000a900473ffffffffffffffffffffffffffffffffffffffff1673ffffffffffffffffffffffffffffffffffffffff1673ffffffffffffffffffffffffffffffffffffffff1681526020016005820160149054906101000a900460ff16151515158152505090506000816000015111611f99576040517f08c379a0000000000000000000000000000000000000000000000000000000008152600401611f9090613306565b60405180910390fd5b6000600560008360000151815260200190815260200160002060008573ffffffffffffffffffffffffffffffffffffffff1673ffffffffffffffffffffffffffffffffffffffff16815260200190815260200160002080549050905060008111612008576000925050506120bd565b60006001826120179190613710565b9050600560008460000151815260200190815260200160002060008673ffffffffffffffffffffffffffffffffffffffff1673ffffffffffffffffffffffffffffffffffffffff16815260200190815260200160002081815481106120a5577f4e487b7100000000000000000000000000000000000000000000000000000000600052603260045260246000fd5b90600052602060002090600202016000015493505050505b92915050565b60008060009054906101000a900473ffffffffffffffffffffffffffffffffffffffff1673ffffffffffffffffffffffffffffffffffffffff163373ffffffffffffffffffffffffffffffffffffffff1614612154576040517f08c379a000000000000000000000000000000000000000000000000000000000815260040161214b906133c6565b60405180910390fd5b600960009054906101000a900460ff16905090565b60008054906101000a900473ffffffffffffffffffffffffffffffffffffffff1673ffffffffffffffffffffffffffffffffffffffff163373ffffffffffffffffffffffffffffffffffffffff16146121f7576040517f08c379a00000000000000000000000000000000000000000000000000000000081526004016121ee906133c6565b60405180910390fd5b6001600960006101000a81548160ff021916908315150217905550565b60001515600960009054906101000a900460ff1615151461226a576040517f08c379a000000000000000000000000000000000000000000000000000000000815260040161226190613486565b60405180910390fd5b6000600360009054906101000a900473ffffffffffffffffffffffffffffffffffffffff1673ffffffffffffffffffffffffffffffffffffffff16636352211e846040518263ffffffff1660e01b81526004016122c791906134c6565b60206040518083038186803b1580156122df57600080fd5b505afa1580156122f3573d6000803e3d6000fd5b505050506040513d601f19601f820116820180604052508101906123179190612ad1565b90508073ffffffffffffffffffffffffffffffffffffffff163373ffffffffffffffffffffffffffffffffffffffff1614612387576040517f08c379a000000000000000000000000000000000000000000000000000000000815260040161237e906132a6565b60405180910390fd5b6123916007612a19565b61239b6004612a19565b60006123a76007612a2f565b905060006123b56004612a2f565b905060008060006040518060e001604052808581526020018981526020018881526020013373ffffffffffffffffffffffffffffffffffffffff1681526020018481526020018373ffffffffffffffffffffffffffffffffffffffff168152602001600015158152509050806008600087815260200190815260200160002060008201518160000155602082015181600101556040820151816002015560608201518160030160006101000a81548173ffffffffffffffffffffffffffffffffffffffff021916908373ffffffffffffffffffffffffffffffffffffffff1602179055506080820151816004015560a08201518160050160006101000a81548173ffffffffffffffffffffffffffffffffffffffff021916908373ffffffffffffffffffffffffffffffffffffffff16021790555060c08201518160050160146101000a81548160ff0219169083151502179055509050508784867feb7c5d097ec886b3074780a42647e616d30bd119bc1c4de4ee0114d252f6afa98a336040516125419291906134e1565b60405180910390a45050505050505050565b60008060009054906101000a900473ffffffffffffffffffffffffffffffffffffffff16905090565b600080600860008481526020019081526020016000206040518060e00160405290816000820154815260200160018201548152602001600282015481526020016003820160009054906101000a900473ffffffffffffffffffffffffffffffffffffffff1673ffffffffffffffffffffffffffffffffffffffff1673ffffffffffffffffffffffffffffffffffffffff168152602001600482015481526020016005820160009054906101000a900473ffffffffffffffffffffffffffffffffffffffff1673ffffffffffffffffffffffffffffffffffffffff1673ffffffffffffffffffffffffffffffffffffffff1681526020016005820160149054906101000a900460ff161515151581525050905060008160000151116126d5576040517f08c379a00000000000000000000000000000000000000000000000000000000081526004016126cc90613306565b60405180910390fd5b8060800151915050919050565b60008060009054906101000a900473ffffffffffffffffffffffffffffffffffffffff1673ffffffffffffffffffffffffffffffffffffffff163373ffffffffffffffffffffffffffffffffffffffff1614612773576040517f08c379a000000000000000000000000000000000000000000000000000000000815260040161276a906133c6565b60405180910390fd5b600360009054906101000a900473ffffffffffffffffffffffffffffffffffffffff16905090565b60008060009054906101000a900473ffffffffffffffffffffffffffffffffffffffff1673ffffffffffffffffffffffffffffffffffffffff163373ffffffffffffffffffffffffffffffffffffffff161461282c576040517f08c379a0000000000000000000000000000000000000000000000000000000008152600401612823906133c6565b60405180910390fd5b600154905090565b60008054906101000a900473ffffffffffffffffffffffffffffffffffffffff1673ffffffffffffffffffffffffffffffffffffffff163373ffffffffffffffffffffffffffffffffffffffff16146128c2576040517f08c379a00000000000000000000000000000000000000000000000000000000081526004016128b9906133c6565b60405180910390fd5b80600360006101000a81548173ffffffffffffffffffffffffffffffffffffffff021916908373ffffffffffffffffffffffffffffffffffffffff16021790555050565b600081101561294a576040517f08c379a000000000000000000000000000000000000000000000000000000000815260040161294190613426565b60405180910390fd5b606481111561298e576040517f08c379a000000000000000000000000000000000000000000000000000000000815260040161298590613426565b60405180910390fd5b50565b60008082116129d5576040517f08c379a00000000000000000000000000000000000000000000000000000000081526004016129cc90613346565b60405180910390fd5b6129fb60646129ed8486612a3d90919063ffffffff16565b612a5390919063ffffffff16565b905092915050565b60008183612a119190613710565b905092915050565b6001816000016000828254019250508190555050565b600081600001549050919050565b60008183612a4b91906136b6565b905092915050565b60008183612a619190613685565b905092915050565b600081359050612a78816137ea565b92915050565b600081519050612a8d816137ea565b92915050565b600081359050612aa281613801565b92915050565b600060208284031215612aba57600080fd5b6000612ac884828501612a69565b91505092915050565b600060208284031215612ae357600080fd5b6000612af184828501612a7e565b91505092915050565b600060208284031215612b0c57600080fd5b6000612b1a84828501612a93565b91505092915050565b60008060408385031215612b3657600080fd5b6000612b4485828601612a93565b9250506020612b5585828601612a69565b9150509250929050565b60008060408385031215612b7257600080fd5b6000612b8085828601612a93565b9250506020612b9185828601612a93565b9150509250929050565b612ba481613744565b82525050565b612bb381613756565b82525050565b6000612bc6601e8361361e565b91507f42696464696e6720706572696f64206973206e6f74206f7665722079657400006000830152602082019050919050565b6000612c06601d8361361e565b91507f4974656d206f776e65722063616e206e6f74206d616b652061206269640000006000830152602082019050919050565b6000612c46602d8361361e565b91507f43616c6c6572206d757374206265206869676865737420626964646572206f7260008301527f20746f6b656e206f776e65722e000000000000000000000000000000000000006020830152604082019050919050565b6000612cac60178361361e565b91507f596f7520617265206e6f7420746f6b656e206f776e65720000000000000000006000830152602082019050919050565b6000612cec601a8361361e565b91507f41756374696f6e20697320616c726561647920736574746c65640000000000006000830152602082019050919050565b6000612d2c60258361361e565b91507f41756374696f6e2077696e6e65722063616e206e6f742077697468647261772060008301527f6d6f6e65790000000000000000000000000000000000000000000000000000006020830152604082019050919050565b6000612d92601e8361361e565b91507f4974656d206e6f7420666f756e6420696e2061756374696f6e206c69737400006000830152602082019050919050565b6000612dd260198361361e565b91507f4e6f20636f6d6d697373696f6e20746f207769746864726177000000000000006000830152602082019050919050565b6000612e12601f8361361e565b91507f436f6d6d697373696f6e20726174652063616e206e6f74206265207a65726f006000830152602082019050919050565b6000612e52601b8361361e565b91507f48696768657374206269642063616e206e6f74206265207a65726f00000000006000830152602082019050919050565b6000612e9260168361361e565b91507f42696464696e6720706572696f64206973206f766572000000000000000000006000830152602082019050919050565b6000612ed2601a8361361e565b91507f4e65656420612076616c696420706179656520616464726573730000000000006000830152602082019050919050565b6000612f12601a8361361e565b91507f596f7520617265206e6f7420636f6e7472616374206f776e65720000000000006000830152602082019050919050565b6000612f5260258361361e565b91507f436f6e747261637420646f6573206e6f74206861766520656e6f75676820626160008301527f6c616e63650000000000000000000000000000000000000000000000000000006020830152604082019050919050565b6000612fb860248361361e565b91507f43616e206e6f7420776974686472617720746f20636f6e74726163742061646460008301527f72657373000000000000000000000000000000000000000000000000000000006020830152604082019050919050565b600061301e60178361361e565b91507f496e76616c696420636f6d6d697373696f6e20726174650000000000000000006000830152602082019050919050565b600061305e601d8361361e565b91507f596f752068617665206e6f7468696e6720746f2077697468647261772e0000006000830152602082019050919050565b600061309e60188361361e565b91507f546f74616c2062696420616d6f756e74206973207a65726f00000000000000006000830152602082019050919050565b60006130de60128361361e565b91507f436f6e74726163742069732070617573656400000000000000000000000000006000830152602082019050919050565b600061311e60278361361e565b91507f42696420616d6f756e74206d75737420626520686967686572207468616e206c60008301527f61737420626964000000000000000000000000000000000000000000000000006020830152604082019050919050565b61318081613782565b82525050565b600060208201905061319b6000830184612b9b565b92915050565b60006060820190506131b66000830186612b9b565b6131c36020830185612b9b565b6131d06040830184613177565b949350505050565b600060a0820190506131ed6000830188612b9b565b6131fa6020830187613177565b6132076040830186613177565b6132146060830185613177565b6132216080830184613177565b9695505050505050565b60006020820190506132406000830184612baa565b92915050565b6000602082019050818103600083015261325f81612bb9565b9050919050565b6000602082019050818103600083015261327f81612bf9565b9050919050565b6000602082019050818103600083015261329f81612c39565b9050919050565b600060208201905081810360008301526132bf81612c9f565b9050919050565b600060208201905081810360008301526132df81612cdf565b9050919050565b600060208201905081810360008301526132ff81612d1f565b9050919050565b6000602082019050818103600083015261331f81612d85565b9050919050565b6000602082019050818103600083015261333f81612dc5565b9050919050565b6000602082019050818103600083015261335f81612e05565b9050919050565b6000602082019050818103600083015261337f81612e45565b9050919050565b6000602082019050818103600083015261339f81612e85565b9050919050565b600060208201905081810360008301526133bf81612ec5565b9050919050565b600060208201905081810360008301526133df81612f05565b9050919050565b600060208201905081810360008301526133ff81612f45565b9050919050565b6000602082019050818103600083015261341f81612fab565b9050919050565b6000602082019050818103600083015261343f81613011565b9050919050565b6000602082019050818103600083015261345f81613051565b9050919050565b6000602082019050818103600083015261347f81613091565b9050919050565b6000602082019050818103600083015261349f816130d1565b9050919050565b600060208201905081810360008301526134bf81613111565b9050919050565b60006020820190506134db6000830184613177565b92915050565b60006040820190506134f66000830185613177565b6135036020830184612b9b565b9392505050565b600060408201905061351f6000830185613177565b61352c6020830184613177565b9392505050565b60006060820190506135486000830186613177565b6135556020830185613177565b6135626040830184613177565b949350505050565b600060e08201905061357f600083018a613177565b61358c6020830189613177565b6135996040830188613177565b6135a66060830187612b9b565b6135b36080830186613177565b6135c060a0830185612b9b565b6135cd60c0830184612baa565b98975050505050505050565b60006080820190506135ee6000830187613177565b6135fb6020830186613177565b6136086040830185613177565b6136156060830184613177565b95945050505050565b600082825260208201905092915050565b600061363a82613782565b915061364583613782565b9250827fffffffffffffffffffffffffffffffffffffffffffffffffffffffffffffffff0382111561367a5761367961378c565b5b828201905092915050565b600061369082613782565b915061369b83613782565b9250826136ab576136aa6137bb565b5b828204905092915050565b60006136c182613782565b91506136cc83613782565b9250817fffffffffffffffffffffffffffffffffffffffffffffffffffffffffffffffff04831182151516156137055761370461378c565b5b828202905092915050565b600061371b82613782565b915061372683613782565b9250828210156137395761373861378c565b5b828203905092915050565b600061374f82613762565b9050919050565b60008115159050919050565b600073ffffffffffffffffffffffffffffffffffffffff82169050919050565b6000819050919050565b7f4e487b7100000000000000000000000000000000000000000000000000000000600052601160045260246000fd5b7f4e487b7100000000000000000000000000000000000000000000000000000000600052601260045260246000fd5b6137f381613744565b81146137fe57600080fd5b50565b61380a81613782565b811461381557600080fd5b5056fea2646970667358221220640f826f27370e8549cc12d31f1e33c12326dce3cbd9bce8f095aa9fe4b1c37464736f6c63430008000033",
  "immutableReferences": {},
  "source": "// SPDX-License-Identifier: GPL-3.0\npragma solidity ^0.8.0;\n\nimport \"@openzeppelin/contracts/utils/Counters.sol\";\nimport \"@openzeppelin/contracts/utils/math/SafeMath.sol\";\n\nimport './Ownable.sol';\nimport './NiftyToken.sol';\n\ncontract AuctionManager is Ownable {\n    \n    using Counters for Counters.Counter;\n    using SafeMath for uint;\n\n    // events\n    event BidPlaced(address _by, uint _amount, uint _itemId, uint _tokenId, uint _totalBidAmount);\n    event ItemListed(uint indexed _listId, uint indexed _itemId, uint indexed _tokenId, uint _biddingEndTimestamp,  address _by);\n    event Withdrawal(address indexed _by, address indexed _to, uint _amount, uint indexed _listId, uint _itemId, uint _tokenId, uint _totalBidAmountNow);\n    event TokenTransfered(address indexed _from, address indexed _to, uint indexed _listId, uint _itemId, uint _tokenId);\n    event MoneyTransfered(address indexed _to, uint indexed _amount, uint _commission, uint indexed _listId, uint _itemId, uint _tokenId);\n    event CommissionTransfered(address indexed _to, uint indexed _amount, address indexed _by);\n    event RemainingAmountTransfered(address indexed _to, uint indexed _amount, uint indexed _listId, uint _itemId, uint _tokenId);\n\n    // Commission\n    uint commission;\n    uint commissionRate;\n\n    // NiftyToken\n    address niftyTokenContractAddress;\n\n    // Item\n    Counters.Counter private itemCounter;\n    struct Item {\n        uint id;\n        uint tokenId;\n        uint biddingEndTimestamp;\n        address owner;\n        uint highestBid;\n        address highestBidder;\n        bool settled;\n    }    \n    struct Bid {\n        uint amount;\n        address by;\n    }\n    mapping(uint => mapping(address => Bid[])) itemBidList;\n    mapping(uint => mapping(address => uint)) itemTotalBidAmountList;\n\n    // Item List\n    Counters.Counter private listCounter;\n    mapping(uint => Item) public itemList;\n    \n    // Pausable\n    bool private paused;\n\n    constructor(address _niftyTokenContractAddress, uint _commissionRate) {\n        // Checks\n        validateCommissionRate(_commissionRate);\n    \n        niftyTokenContractAddress = _niftyTokenContractAddress;\n        commissionRate = _commissionRate;\n        paused = false;\n    }\n\n    // Modifiers\n    modifier notPaused {\n        require(paused == false, 'Contract is paused');\n        _;\n    }\n\n    // Public\n    function listItem(uint _tokenId, uint _biddingEndTimestamp) public notPaused {\n        // Checks\n        address owner = NiftyToken(niftyTokenContractAddress).ownerOf(_tokenId);\n        require(msg.sender == owner, 'You are not token owner');\n\n        // Get ids\n        listCounter.increment();\n        itemCounter.increment();\n        uint listId = listCounter.current();\n        uint itemId = itemCounter.current();\n\n        // Store item\n        uint _highestBid;\n        address _highestBidder;\n        Item memory item = Item(itemId, _tokenId, _biddingEndTimestamp, msg.sender, _highestBid, _highestBidder, false);\n        itemList[listId] = item;\n        \n        emit ItemListed(listId, itemId, _tokenId, _biddingEndTimestamp, msg.sender);\n    }\n    \n    function bidItem(uint _listId) public payable notPaused {\n        Item storage item = itemList[_listId];\n        \n        uint _amount = msg.value;\n\n        // Checks\n        require(item.id > 0, 'Item not found in auction list');\n        require(msg.sender != item.owner, 'Item owner can not make a bid');\n        require(block.timestamp <= item.biddingEndTimestamp, 'Bidding period is over');\n        require(_amount > item.highestBid, 'Bid amount must be higher than last bid');\n\n        // Store bid\n        Bid memory bid = Bid(_amount, msg.sender);\n        itemBidList[item.id][msg.sender].push(bid);\n        itemTotalBidAmountList[item.id][msg.sender] += _amount;\n        \n        // Record highest bid\n        item.highestBid = _amount;\n        item.highestBidder = msg.sender;\n        \n        emit BidPlaced(msg.sender, _amount, item.id, item.tokenId, itemTotalBidAmountList[item.id][msg.sender]);\n    }\n    \n    function lastBidAmount(uint _listId, address _by) public view returns(uint) {\n        Item memory item = itemList[_listId];\n\n        // Checks\n        require(item.id > 0, 'Item not found in auction list');\n        \n        uint totalBids = itemBidList[item.id][_by].length;\n        if (totalBids <= 0) return 0;\n\n        uint lastBidIndex = totalBids - 1;\n        return itemBidList[item.id][_by][lastBidIndex].amount;\n    }\n\n    function totalBidAmount(uint _listId, address _by) public view returns(uint) {\n        Item memory item = itemList[_listId];\n\n        // Checks\n        require(item.id > 0, 'Item not found in auction list');\n        \n        return itemTotalBidAmountList[item.id][_by];\n    }\n    \n    function highestBid(uint _listId) public view returns(uint) {\n        Item memory item = itemList[_listId];\n\n        // Checks\n        require(item.id > 0, 'Item not found in auction list');\n        \n        return item.highestBid;\n    }\n    \n    function highestBidder(uint _listId) public view returns(address) {\n        Item memory item = itemList[_listId];\n\n        // Checks\n        require(item.id > 0, 'Item not found in auction list');\n        \n        return item.highestBidder;\n    }\n\n    function withdraw(uint _listId) public notPaused {\n        Item memory item = itemList[_listId];\n\n        address payable to = payable(msg.sender);\n\n        // Checks\n        require(item.id > 0, 'Item not found in auction list');\n        require(block.timestamp > item.biddingEndTimestamp, 'Bidding period is not over yet');\n        require(to != item.highestBidder, 'Auction winner can not withdraw money');\n        \n        // Check user valid for withdrawal\n        uint totalAmount = itemTotalBidAmountList[item.id][to];\n        require(totalAmount > 0, 'You have nothing to withdraw.');\n        require(address(this).balance >= totalAmount, 'Contract does not have enough balance');\n        \n        // Effects\n        itemTotalBidAmountList[item.id][to] = 0;\n\n        emit Withdrawal(msg.sender, to, totalAmount, _listId, item.id, item.tokenId, itemTotalBidAmountList[item.id][to]);\n\n        to.transfer(totalAmount);\n    }\n\n    function settleAuction(uint _listId) public notPaused {\n        Item storage item = itemList[_listId];\n\n        // Checks\n        require(item.id > 0, 'Item not found in auction list');\n        require(block.timestamp > item.biddingEndTimestamp, 'Bidding period is not over yet');\n        require(item.highestBid > 0, 'Highest bid can not be zero');\n        require(msg.sender == item.highestBidder || msg.sender == item.owner, 'Caller must be highest bidder or token owner.');\n        require(item.settled == false, 'Auction is already settled');\n        \n        // Checks\n        uint totalAmount = itemTotalBidAmountList[item.id][item.highestBidder];\n        require(totalAmount > 0, 'Total bid amount is zero');\n        \n        // Checks\n        uint amount = item.highestBid;\n        uint totalCommission = calculateCommission(amount, commissionRate);\n        amount = amount.sub(totalCommission);\n        require(address(this).balance >= totalAmount, 'Contract does not have enough balance');\n\n        // Effects\n        commission += totalCommission;\n        item.settled = true;\n        itemTotalBidAmountList[item.id][item.highestBidder] = 0;\n\n        // Transfer\n        address payable itemOwner = payable(item.owner);\n        address payable winner = payable(item.highestBidder);\n\n        emit TokenTransfered(item.owner, item.highestBidder, _listId, item.id, item.tokenId);\n        emit MoneyTransfered(itemOwner, amount, totalCommission, _listId, item.id, item.tokenId);\n        \n        uint remainingAmount = totalAmount.sub(item.highestBid);\n        if (remainingAmount > 0) {\n            emit RemainingAmountTransfered(item.highestBidder, remainingAmount, _listId, item.id, item.tokenId);\n            winner.transfer(remainingAmount);\n        }\n        \n        NiftyToken(niftyTokenContractAddress).safeTransferFrom(item.owner, item.highestBidder, item.tokenId);\n        itemOwner.transfer(amount);\n    }\n\n    function calculateCommission(uint _amount, uint _commissionRate) internal pure returns(uint) {\n        // Checks\n        require(_commissionRate > 0, 'Commission rate can not be zero');\n        \n        return _amount.mul(_commissionRate).div(100);\n    }\n\n    // Admin\n    function getBalance() public view onlyOwner returns(uint) {\n        return address(this).balance;\n    }\n\n    function getCommission() public view onlyOwner returns(uint) {\n        return commission;\n    }\n\n    function getCommissionRate() public view onlyOwner returns(uint) {\n        return commissionRate;\n    }\n\n    function setCommissionRate(uint _commissionRate) public onlyOwner {\n        validateCommissionRate(_commissionRate);\n        \n        commissionRate = _commissionRate;\n    }\n\n    function getNiftyTokenContractAddress() public view onlyOwner returns(address) {\n        return niftyTokenContractAddress;\n    }\n\n    function setNiftyTokenContractAddress(address _niftyTokenContractAddress) public onlyOwner {       \n        niftyTokenContractAddress = _niftyTokenContractAddress;\n    }\n    \n    function withdrawCommission() public onlyOwner {\n        uint totalCommission = commission;\n        address owner = getOwner();\n        address payable to = payable(owner);\n\n        // Checks\n        require(totalCommission > 0, 'No commission to withdraw');\n        require(to != address(0), 'Need a valid payee address');\n        require(to != address(this), 'Can not withdraw to contract address');\n        require(address(this).balance >= totalCommission, 'Contract does not have enough balance');\n\n        // Effects\n        commission = 0;\n\n        emit CommissionTransfered(owner, totalCommission, msg.sender);\n\n        // Transfer\n        to.transfer(totalCommission);\n    }\n    \n\n    // Validators\n    function validateCommissionRate(uint _commissionRate) internal pure {\n        require(_commissionRate >= 0, 'Invalid commission rate');\n        require(_commissionRate <= 100, 'Invalid commission rate');\n    }\n\n    function getPaused() public view onlyOwner returns(bool) {\n        return paused;\n    }\n    \n    function pause() public onlyOwner {\n        paused = true;\n    }\n    \n    function unpause() public onlyOwner {\n        paused = false;\n    }\n}",
  "sourcePath": "/Users/developer/Documents/GitHub/niftyreact/contracts/AuctionManager.sol",
  "compiler": {
    "name": "solc",
    "version": "0.8.0+commit.c7dfd78e.Emscripten.clang"
  },
  "schemaVersion": "3.4.1",
  "updatedAt": "2021-07-13T16:06:27.037Z",
  "networkType": "ethereum",
  "devdoc": {
    "kind": "dev",
    "methods": {},
    "version": 1
  },
  "userdoc": {
    "kind": "user",
    "methods": {},
    "version": 1
  }
}