{
  "contractName": "Item",
  "abi": [
    {
      "inputs": [
        {
          "internalType": "uint256",
          "name": "_tokenId",
          "type": "uint256"
        },
        {
          "internalType": "address",
          "name": "_owner",
          "type": "address"
        },
        {
          "internalType": "uint256",
          "name": "_biddingEndTimestamp",
          "type": "uint256"
        }
      ],
      "stateMutability": "nonpayable",
      "type": "constructor"
    },
    {
      "anonymous": false,
      "inputs": [
        {
          "indexed": false,
          "internalType": "address",
          "name": "_by",
          "type": "address"
        },
        {
          "indexed": false,
          "internalType": "uint256",
          "name": "_amount",
          "type": "uint256"
        },
        {
          "indexed": false,
          "internalType": "uint256",
          "name": "_tokenId",
          "type": "uint256"
        },
        {
          "indexed": false,
          "internalType": "uint256",
          "name": "_totalBidAmount",
          "type": "uint256"
        }
      ],
      "name": "BidCreate",
      "type": "event"
    },
    {
      "inputs": [],
      "name": "biddingEndTimestamp",
      "outputs": [
        {
          "internalType": "uint256",
          "name": "",
          "type": "uint256"
        }
      ],
      "stateMutability": "view",
      "type": "function"
    },
    {
      "inputs": [],
      "name": "highestBid",
      "outputs": [
        {
          "internalType": "uint256",
          "name": "",
          "type": "uint256"
        }
      ],
      "stateMutability": "view",
      "type": "function"
    },
    {
      "inputs": [],
      "name": "highestBidder",
      "outputs": [
        {
          "internalType": "address",
          "name": "",
          "type": "address"
        }
      ],
      "stateMutability": "view",
      "type": "function"
    },
    {
      "inputs": [],
      "name": "owner",
      "outputs": [
        {
          "internalType": "address",
          "name": "",
          "type": "address"
        }
      ],
      "stateMutability": "view",
      "type": "function"
    },
    {
      "inputs": [],
      "name": "tokenId",
      "outputs": [
        {
          "internalType": "uint256",
          "name": "",
          "type": "uint256"
        }
      ],
      "stateMutability": "view",
      "type": "function"
    },
    {
      "inputs": [
        {
          "internalType": "address",
          "name": "",
          "type": "address"
        }
      ],
      "name": "totalBidAmount",
      "outputs": [
        {
          "internalType": "uint256",
          "name": "",
          "type": "uint256"
        }
      ],
      "stateMutability": "view",
      "type": "function"
    },
    {
      "inputs": [
        {
          "internalType": "address",
          "name": "_by",
          "type": "address"
        },
        {
          "internalType": "uint256",
          "name": "_amount",
          "type": "uint256"
        }
      ],
      "name": "addBid",
      "outputs": [],
      "stateMutability": "nonpayable",
      "type": "function"
    },
    {
      "inputs": [
        {
          "internalType": "address",
          "name": "_by",
          "type": "address"
        }
      ],
      "name": "lastBidAmount",
      "outputs": [
        {
          "internalType": "uint256",
          "name": "",
          "type": "uint256"
        }
      ],
      "stateMutability": "view",
      "type": "function"
    },
    {
      "inputs": [],
      "name": "getTimestamp",
      "outputs": [
        {
          "internalType": "uint256",
          "name": "",
          "type": "uint256"
        }
      ],
      "stateMutability": "view",
      "type": "function"
    }
  ],
  "bytecode": "0x608060405234801561001057600080fd5b50604051610b09380380610b09833981810160405281019061003291906100b3565b8260008190555081600260006101000a81548173ffffffffffffffffffffffffffffffffffffffff021916908373ffffffffffffffffffffffffffffffffffffffff1602179055508060018190555050505061016c565b6000815190506100988161013e565b92915050565b6000815190506100ad81610155565b92915050565b6000806000606084860312156100c857600080fd5b60006100d68682870161009e565b93505060206100e786828701610089565b92505060406100f88682870161009e565b9150509250925092565b600061010d82610114565b9050919050565b600073ffffffffffffffffffffffffffffffffffffffff82169050919050565b6000819050919050565b61014781610102565b811461015257600080fd5b50565b61015e81610134565b811461016957600080fd5b50565b61098e8061017b6000396000f3fe608060405234801561001057600080fd5b50600436106100935760003560e01c80638da5cb5b116100665780638da5cb5b1461012057806391f901571461013e578063d57bde791461015c578063d668442d1461017a578063e8d4a7fe146101aa57610093565b806317d70f7c14610098578063188ec356146100b657806344690d78146100d45780634d3831af146100f0575b600080fd5b6100a06101c8565b6040516100ad9190610809565b60405180910390f35b6100be6101ce565b6040516100cb9190610809565b60405180910390f35b6100ee60048036038101906100e99190610669565b6101d6565b005b61010a60048036038101906101059190610640565b61046d565b6040516101179190610809565b60405180910390f35b6101286105a6565b6040516101359190610769565b60405180910390f35b6101466105cc565b6040516101539190610769565b60405180910390f35b6101646105f2565b6040516101719190610809565b60405180910390f35b610194600480360381019061018f9190610640565b6105f8565b6040516101a19190610809565b60405180910390f35b6101b2610610565b6040516101bf9190610809565b60405180910390f35b60005481565b600042905090565b80600454811161021b576040517f08c379a0000000000000000000000000000000000000000000000000000000008152600401610212906107e9565b60405180910390fd5b600154421115610260576040517f08c379a0000000000000000000000000000000000000000000000000000000008152600401610257906107c9565b60405180910390fd5b600060405180604001604052808481526020018573ffffffffffffffffffffffffffffffffffffffff168152509050600360008573ffffffffffffffffffffffffffffffffffffffff1673ffffffffffffffffffffffffffffffffffffffff1681526020019081526020016000208190806001815401808255809150506001900390600052602060002090600202016000909190919091506000820151816000015560208201518160010160006101000a81548173ffffffffffffffffffffffffffffffffffffffff021916908373ffffffffffffffffffffffffffffffffffffffff160217905550505082600660008673ffffffffffffffffffffffffffffffffffffffff1673ffffffffffffffffffffffffffffffffffffffff168152602001908152602001600020600082825461039a9190610835565b925050819055508260048190555083600560006101000a81548173ffffffffffffffffffffffffffffffffffffffff021916908373ffffffffffffffffffffffffffffffffffffffff1602179055507f1d904d56816750f0a37ca02964b336f16f5782bf7af81cbca2d8ecf9c27e6de38484600054600660008973ffffffffffffffffffffffffffffffffffffffff1673ffffffffffffffffffffffffffffffffffffffff1681526020019081526020016000205460405161045f9493929190610784565b60405180910390a150505050565b600080600360008473ffffffffffffffffffffffffffffffffffffffff1673ffffffffffffffffffffffffffffffffffffffff16815260200190815260200160002080549050116104c157600090506105a1565b60006001600360008573ffffffffffffffffffffffffffffffffffffffff1673ffffffffffffffffffffffffffffffffffffffff16815260200190815260200160002080549050610512919061088b565b9050600360008473ffffffffffffffffffffffffffffffffffffffff1673ffffffffffffffffffffffffffffffffffffffff168152602001908152602001600020818154811061058b577f4e487b7100000000000000000000000000000000000000000000000000000000600052603260045260246000fd5b9060005260206000209060020201600001549150505b919050565b600260009054906101000a900473ffffffffffffffffffffffffffffffffffffffff1681565b600560009054906101000a900473ffffffffffffffffffffffffffffffffffffffff1681565b60045481565b60066020528060005260406000206000915090505481565b60015481565b6000813590506106258161092a565b92915050565b60008135905061063a81610941565b92915050565b60006020828403121561065257600080fd5b600061066084828501610616565b91505092915050565b6000806040838503121561067c57600080fd5b600061068a85828601610616565b925050602061069b8582860161062b565b9150509250929050565b6106ae816108bf565b82525050565b60006106c1601683610824565b91507f42696464696e6720706572696f64206973206f766572000000000000000000006000830152602082019050919050565b6000610701602783610824565b91507f42696420616d6f756e74206d75737420626520686967686572207468616e206c60008301527f61737420626964000000000000000000000000000000000000000000000000006020830152604082019050919050565b610763816108f1565b82525050565b600060208201905061077e60008301846106a5565b92915050565b600060808201905061079960008301876106a5565b6107a6602083018661075a565b6107b3604083018561075a565b6107c0606083018461075a565b95945050505050565b600060208201905081810360008301526107e2816106b4565b9050919050565b60006020820190508181036000830152610802816106f4565b9050919050565b600060208201905061081e600083018461075a565b92915050565b600082825260208201905092915050565b6000610840826108f1565b915061084b836108f1565b9250827fffffffffffffffffffffffffffffffffffffffffffffffffffffffffffffffff038211156108805761087f6108fb565b5b828201905092915050565b6000610896826108f1565b91506108a1836108f1565b9250828210156108b4576108b36108fb565b5b828203905092915050565b60006108ca826108d1565b9050919050565b600073ffffffffffffffffffffffffffffffffffffffff82169050919050565b6000819050919050565b7f4e487b7100000000000000000000000000000000000000000000000000000000600052601160045260246000fd5b610933816108bf565b811461093e57600080fd5b50565b61094a816108f1565b811461095557600080fd5b5056fea2646970667358221220dc55504ae048a09197834a5c54044f3325ad952b167f606652c30b7ea926aa2b64736f6c63430008000033",
  "immutableReferences": {},
  "source": "// SPDX-License-Identifier: GPL-3.0\npragma solidity ^0.8.0;\n\ncontract Item {\n    \n    event BidCreate(address _by, uint _amount, uint _tokenId, uint _totalBidAmount);\n    \n    uint public tokenId;\n    uint public biddingEndTimestamp;\n    address public owner;\n    \n    struct Bid {\n        uint amount;\n        address by;\n    }\n    mapping(address => Bid[]) bids;\n    \n    uint public highestBid;\n    address public highestBidder;\n    \n    mapping(address => uint) public totalBidAmount;\n    \n    constructor(uint _tokenId, address _owner, uint _biddingEndTimestamp) {\n        tokenId = _tokenId;\n        owner = _owner;\n        biddingEndTimestamp = _biddingEndTimestamp;\n    }\n    \n    modifier onlyHigherBid(uint _amount) {\n        require(_amount > highestBid, 'Bid amount must be higher than last bid');\n        _;\n    }\n\n    modifier onlyWithinBidPeriod() {\n        require(block.timestamp <= biddingEndTimestamp, 'Bidding period is over');\n        _;\n    }\n    \n    function addBid(address _by, uint _amount) public onlyHigherBid(_amount) onlyWithinBidPeriod {\n        Bid memory bid = Bid(_amount, _by);\n        \n        bids[_by].push(bid);\n        totalBidAmount[_by] += _amount;\n        \n        highestBid = _amount;\n        highestBidder = _by;\n        \n        emit BidCreate(_by, _amount, tokenId, totalBidAmount[_by]);\n    }\n    \n    function lastBidAmount(address _by) public view returns(uint) {\n        if (bids[_by].length <= 0) return 0;\n\n        uint lastBidIndex = bids[_by].length - 1;\n        return bids[_by][lastBidIndex].amount;\n    }\n    \n    function getTimestamp() public view returns(uint) {\n        return block.timestamp;\n    }\n}",
  "sourcePath": "/home/chirag/Documents/projects/codevally/nifty/niftyreact/contracts/Item.sol",
  "compiler": {
    "name": "solc",
    "version": "0.8.0+commit.c7dfd78e.Emscripten.clang"
  },
  "schemaVersion": "3.4.1",
  "updatedAt": "2021-07-05T04:09:35.077Z",
  "devdoc": {
    "kind": "dev",
    "methods": {},
    "version": 1
  },
  "userdoc": {
    "kind": "user",
    "methods": {},
    "version": 1
  }
}