{
  "contractName": "AuctionManager",
  "abi": [
    {
      "inputs": [
        {
          "internalType": "address",
          "name": "_niftyTokenContractAddress",
          "type": "address"
        },
        {
          "internalType": "uint256",
          "name": "_commissionRate",
          "type": "uint256"
        }
      ],
      "stateMutability": "nonpayable",
      "type": "constructor"
    },
    {
      "anonymous": false,
      "inputs": [
        {
          "indexed": false,
          "internalType": "address",
          "name": "_by",
          "type": "address"
        },
        {
          "indexed": false,
          "internalType": "uint256",
          "name": "_amount",
          "type": "uint256"
        },
        {
          "indexed": false,
          "internalType": "uint256",
          "name": "_itemId",
          "type": "uint256"
        },
        {
          "indexed": false,
          "internalType": "uint256",
          "name": "_tokenId",
          "type": "uint256"
        },
        {
          "indexed": false,
          "internalType": "uint256",
          "name": "_totalBidAmount",
          "type": "uint256"
        }
      ],
      "name": "BidPlaced",
      "type": "event"
    },
    {
      "anonymous": false,
      "inputs": [
        {
          "indexed": true,
          "internalType": "address",
          "name": "_to",
          "type": "address"
        },
        {
          "indexed": true,
          "internalType": "uint256",
          "name": "_amount",
          "type": "uint256"
        },
        {
          "indexed": true,
          "internalType": "address",
          "name": "_by",
          "type": "address"
        }
      ],
      "name": "CommissionTransfered",
      "type": "event"
    },
    {
      "anonymous": false,
      "inputs": [
        {
          "indexed": true,
          "internalType": "uint256",
          "name": "_listId",
          "type": "uint256"
        },
        {
          "indexed": true,
          "internalType": "uint256",
          "name": "_itemId",
          "type": "uint256"
        },
        {
          "indexed": true,
          "internalType": "uint256",
          "name": "_tokenId",
          "type": "uint256"
        },
        {
          "indexed": false,
          "internalType": "uint256",
          "name": "_biddingEndTimestamp",
          "type": "uint256"
        },
        {
          "indexed": false,
          "internalType": "address",
          "name": "_by",
          "type": "address"
        }
      ],
      "name": "ItemListed",
      "type": "event"
    },
    {
      "anonymous": false,
      "inputs": [
        {
          "indexed": true,
          "internalType": "address",
          "name": "_to",
          "type": "address"
        },
        {
          "indexed": true,
          "internalType": "uint256",
          "name": "_amount",
          "type": "uint256"
        },
        {
          "indexed": false,
          "internalType": "uint256",
          "name": "_commission",
          "type": "uint256"
        },
        {
          "indexed": true,
          "internalType": "uint256",
          "name": "_listId",
          "type": "uint256"
        },
        {
          "indexed": false,
          "internalType": "uint256",
          "name": "_itemId",
          "type": "uint256"
        },
        {
          "indexed": false,
          "internalType": "uint256",
          "name": "_tokenId",
          "type": "uint256"
        }
      ],
      "name": "MoneyTransfered",
      "type": "event"
    },
    {
      "anonymous": false,
      "inputs": [
        {
          "indexed": true,
          "internalType": "address",
          "name": "_to",
          "type": "address"
        },
        {
          "indexed": true,
          "internalType": "uint256",
          "name": "_amount",
          "type": "uint256"
        },
        {
          "indexed": true,
          "internalType": "uint256",
          "name": "_listId",
          "type": "uint256"
        },
        {
          "indexed": false,
          "internalType": "uint256",
          "name": "_itemId",
          "type": "uint256"
        },
        {
          "indexed": false,
          "internalType": "uint256",
          "name": "_tokenId",
          "type": "uint256"
        }
      ],
      "name": "RemainingAmountTransfered",
      "type": "event"
    },
    {
      "anonymous": false,
      "inputs": [
        {
          "indexed": true,
          "internalType": "address",
          "name": "_from",
          "type": "address"
        },
        {
          "indexed": true,
          "internalType": "address",
          "name": "_to",
          "type": "address"
        },
        {
          "indexed": true,
          "internalType": "uint256",
          "name": "_listId",
          "type": "uint256"
        },
        {
          "indexed": false,
          "internalType": "uint256",
          "name": "_itemId",
          "type": "uint256"
        },
        {
          "indexed": false,
          "internalType": "uint256",
          "name": "_tokenId",
          "type": "uint256"
        }
      ],
      "name": "TokenTransfered",
      "type": "event"
    },
    {
      "anonymous": false,
      "inputs": [
        {
          "indexed": true,
          "internalType": "address",
          "name": "_by",
          "type": "address"
        },
        {
          "indexed": true,
          "internalType": "address",
          "name": "_to",
          "type": "address"
        },
        {
          "indexed": false,
          "internalType": "uint256",
          "name": "_amount",
          "type": "uint256"
        },
        {
          "indexed": true,
          "internalType": "uint256",
          "name": "_listId",
          "type": "uint256"
        },
        {
          "indexed": false,
          "internalType": "uint256",
          "name": "_itemId",
          "type": "uint256"
        },
        {
          "indexed": false,
          "internalType": "uint256",
          "name": "_tokenId",
          "type": "uint256"
        },
        {
          "indexed": false,
          "internalType": "uint256",
          "name": "_totalBidAmountNow",
          "type": "uint256"
        }
      ],
      "name": "Withdrawal",
      "type": "event"
    },
    {
      "inputs": [],
      "name": "getOwner",
      "outputs": [
        {
          "internalType": "address",
          "name": "",
          "type": "address"
        }
      ],
      "stateMutability": "view",
      "type": "function",
      "constant": true
    },
    {
      "inputs": [
        {
          "internalType": "uint256",
          "name": "",
          "type": "uint256"
        }
      ],
      "name": "itemList",
      "outputs": [
        {
          "internalType": "uint256",
          "name": "id",
          "type": "uint256"
        },
        {
          "internalType": "uint256",
          "name": "tokenId",
          "type": "uint256"
        },
        {
          "internalType": "uint256",
          "name": "biddingEndTimestamp",
          "type": "uint256"
        },
        {
          "internalType": "address",
          "name": "owner",
          "type": "address"
        },
        {
          "internalType": "uint256",
          "name": "highestBid",
          "type": "uint256"
        },
        {
          "internalType": "address",
          "name": "highestBidder",
          "type": "address"
        },
        {
          "internalType": "bool",
          "name": "settled",
          "type": "bool"
        }
      ],
      "stateMutability": "view",
      "type": "function",
      "constant": true
    },
    {
      "inputs": [
        {
          "internalType": "uint256",
          "name": "_tokenId",
          "type": "uint256"
        },
        {
          "internalType": "uint256",
          "name": "_biddingEndTimestamp",
          "type": "uint256"
        }
      ],
      "name": "listItem",
      "outputs": [],
      "stateMutability": "nonpayable",
      "type": "function"
    },
    {
      "inputs": [
        {
          "internalType": "uint256",
          "name": "_listId",
          "type": "uint256"
        }
      ],
      "name": "bidItem",
      "outputs": [],
      "stateMutability": "payable",
      "type": "function",
      "payable": true
    },
    {
      "inputs": [
        {
          "internalType": "uint256",
          "name": "_listId",
          "type": "uint256"
        },
        {
          "internalType": "address",
          "name": "_by",
          "type": "address"
        }
      ],
      "name": "lastBidAmount",
      "outputs": [
        {
          "internalType": "uint256",
          "name": "",
          "type": "uint256"
        }
      ],
      "stateMutability": "view",
      "type": "function",
      "constant": true
    },
    {
      "inputs": [
        {
          "internalType": "uint256",
          "name": "_listId",
          "type": "uint256"
        },
        {
          "internalType": "address",
          "name": "_by",
          "type": "address"
        }
      ],
      "name": "totalBidAmount",
      "outputs": [
        {
          "internalType": "uint256",
          "name": "",
          "type": "uint256"
        }
      ],
      "stateMutability": "view",
      "type": "function",
      "constant": true
    },
    {
      "inputs": [
        {
          "internalType": "uint256",
          "name": "_listId",
          "type": "uint256"
        }
      ],
      "name": "highestBid",
      "outputs": [
        {
          "internalType": "uint256",
          "name": "",
          "type": "uint256"
        }
      ],
      "stateMutability": "view",
      "type": "function",
      "constant": true
    },
    {
      "inputs": [
        {
          "internalType": "uint256",
          "name": "_listId",
          "type": "uint256"
        }
      ],
      "name": "highestBidder",
      "outputs": [
        {
          "internalType": "address",
          "name": "",
          "type": "address"
        }
      ],
      "stateMutability": "view",
      "type": "function",
      "constant": true
    },
    {
      "inputs": [
        {
          "internalType": "uint256",
          "name": "_listId",
          "type": "uint256"
        }
      ],
      "name": "withdraw",
      "outputs": [],
      "stateMutability": "nonpayable",
      "type": "function"
    },
    {
      "inputs": [
        {
          "internalType": "uint256",
          "name": "_listId",
          "type": "uint256"
        }
      ],
      "name": "settleAuction",
      "outputs": [],
      "stateMutability": "nonpayable",
      "type": "function"
    },
    {
      "inputs": [],
      "name": "getBalance",
      "outputs": [
        {
          "internalType": "uint256",
          "name": "",
          "type": "uint256"
        }
      ],
      "stateMutability": "view",
      "type": "function",
      "constant": true
    },
    {
      "inputs": [],
      "name": "getCommission",
      "outputs": [
        {
          "internalType": "uint256",
          "name": "",
          "type": "uint256"
        }
      ],
      "stateMutability": "view",
      "type": "function",
      "constant": true
    },
    {
      "inputs": [],
      "name": "getCommissionRate",
      "outputs": [
        {
          "internalType": "uint256",
          "name": "",
          "type": "uint256"
        }
      ],
      "stateMutability": "view",
      "type": "function",
      "constant": true
    },
    {
      "inputs": [
        {
          "internalType": "uint256",
          "name": "_commissionRate",
          "type": "uint256"
        }
      ],
      "name": "setCommissionRate",
      "outputs": [],
      "stateMutability": "nonpayable",
      "type": "function"
    },
    {
      "inputs": [],
      "name": "getNiftyTokenContractAddress",
      "outputs": [
        {
          "internalType": "address",
          "name": "",
          "type": "address"
        }
      ],
      "stateMutability": "view",
      "type": "function",
      "constant": true
    },
    {
      "inputs": [
        {
          "internalType": "address",
          "name": "_niftyTokenContractAddress",
          "type": "address"
        }
      ],
      "name": "setNiftyTokenContractAddress",
      "outputs": [],
      "stateMutability": "nonpayable",
      "type": "function"
    },
    {
      "inputs": [],
      "name": "withdrawCommission",
      "outputs": [],
      "stateMutability": "nonpayable",
      "type": "function"
    },
    {
      "inputs": [],
      "name": "getPaused",
      "outputs": [
        {
          "internalType": "bool",
          "name": "",
          "type": "bool"
        }
      ],
      "stateMutability": "view",
      "type": "function",
      "constant": true
    },
    {
      "inputs": [],
      "name": "pause",
      "outputs": [],
      "stateMutability": "nonpayable",
      "type": "function"
    },
    {
      "inputs": [],
      "name": "unpause",
      "outputs": [],
      "stateMutability": "nonpayable",
      "type": "function"
    }
  ],
  "bytecode": "0x60806040523480156200001157600080fd5b50604051620038c8380380620038c88339818101604052810190620000379190620001b2565b336000806101000a81548173ffffffffffffffffffffffffffffffffffffffff021916908373ffffffffffffffffffffffffffffffffffffffff1602179055506200008881620000f360201b60201c565b81600360006101000a81548173ffffffffffffffffffffffffffffffffffffffff021916908373ffffffffffffffffffffffffffffffffffffffff160217905550806002819055506000600960006101000a81548160ff0219169083151502179055505050620002da565b60008110156200013a576040517f08c379a0000000000000000000000000000000000000000000000000000000008152600401620001319062000235565b60405180910390fd5b606481111562000181576040517f08c379a0000000000000000000000000000000000000000000000000000000008152600401620001789062000235565b60405180910390fd5b50565b6000815190506200019581620002a6565b92915050565b600081519050620001ac81620002c0565b92915050565b60008060408385031215620001c657600080fd5b6000620001d68582860162000184565b9250506020620001e9858286016200019b565b9150509250929050565b60006200020260178362000257565b91507f496e76616c696420636f6d6d697373696f6e20726174650000000000000000006000830152602082019050919050565b600060208201905081810360008301526200025081620001f3565b9050919050565b600082825260208201905092915050565b600062000275826200027c565b9050919050565b600073ffffffffffffffffffffffffffffffffffffffff82169050919050565b6000819050919050565b620002b18162000268565b8114620002bd57600080fd5b50565b620002cb816200029c565b8114620002d757600080fd5b50565b6135de80620002ea6000396000f3fe60806040526004361061011f5760003560e01c8063451df52e116100a0578063893d20e811610064578063893d20e8146103a4578063b14c63c5146103cf578063cc2589cf1461040c578063e65d6b4914610437578063ff15ebaf146104625761011f565b8063451df52e146102bf578063551d806e146102fc5780636805b84b146103395780638456cb5914610364578063883efa671461037b5761011f565b806336d64076116100e757806336d64076146102075780633d4d3600146102235780633e25e837146102665780633e4eb36c1461027d5780633f4ba83a146102a85761011f565b80630f3aab721461012457806312065fe01461016157806319fac8fd1461018c5780632e1a7d4d146101b55780632e993611146101de575b600080fd5b34801561013057600080fd5b5061014b60048036038101906101469190612973565b61048b565b6040516101589190613256565b60405180910390f35b34801561016d57600080fd5b50610176610642565b6040516101839190613256565b60405180910390f35b34801561019857600080fd5b506101b360048036038101906101ae919061294a565b6106d9565b005b3480156101c157600080fd5b506101dc60048036038101906101d7919061294a565b61077a565b005b3480156101ea57600080fd5b506102056004803603810190610200919061294a565b610bde565b005b610221600480360381019061021c919061294a565b611318565b005b34801561022f57600080fd5b5061024a6004803603810190610245919061294a565b6116f3565b60405161025d97969594939291906132fa565b60405180910390f35b34801561027257600080fd5b5061027b611782565b005b34801561028957600080fd5b50610292611a3c565b60405161029f9190613256565b60405180910390f35b3480156102b457600080fd5b506102bd611ad5565b005b3480156102cb57600080fd5b506102e660048036038101906102e1919061294a565b611b80565b6040516102f39190612f56565b60405180910390f35b34801561030857600080fd5b50610323600480360381019061031e9190612973565b611ce6565b6040516103309190613256565b60405180910390f35b34801561034557600080fd5b5061034e611f69565b60405161035b9190612ffb565b60405180910390f35b34801561037057600080fd5b5061037961200f565b005b34801561038757600080fd5b506103a2600480360381019061039d91906129af565b6120ba565b005b3480156103b057600080fd5b506103b96123a3565b6040516103c69190612f56565b60405180910390f35b3480156103db57600080fd5b506103f660048036038101906103f1919061294a565b6123cc565b6040516104039190613256565b60405180910390f35b34801561041857600080fd5b50610421612532565b60405161042e9190612f56565b60405180910390f35b34801561044357600080fd5b5061044c6125eb565b6040516104599190613256565b60405180910390f35b34801561046e57600080fd5b50610489600480360381019061048491906128f8565b612684565b005b600080600860008581526020019081526020016000206040518060e00160405290816000820154815260200160018201548152602001600282015481526020016003820160009054906101000a900473ffffffffffffffffffffffffffffffffffffffff1673ffffffffffffffffffffffffffffffffffffffff1673ffffffffffffffffffffffffffffffffffffffff168152602001600482015481526020016005820160009054906101000a900473ffffffffffffffffffffffffffffffffffffffff1673ffffffffffffffffffffffffffffffffffffffff1673ffffffffffffffffffffffffffffffffffffffff1681526020016005820160149054906101000a900460ff161515151581525050905060008160000151116105e4576040517f08c379a00000000000000000000000000000000000000000000000000000000081526004016105db906130b6565b60405180910390fd5b600660008260000151815260200190815260200160002060008473ffffffffffffffffffffffffffffffffffffffff1673ffffffffffffffffffffffffffffffffffffffff1681526020019081526020016000205491505092915050565b60008060009054906101000a900473ffffffffffffffffffffffffffffffffffffffff1673ffffffffffffffffffffffffffffffffffffffff163373ffffffffffffffffffffffffffffffffffffffff16146106d3576040517f08c379a00000000000000000000000000000000000000000000000000000000081526004016106ca90613176565b60405180910390fd5b47905090565b60008054906101000a900473ffffffffffffffffffffffffffffffffffffffff1673ffffffffffffffffffffffffffffffffffffffff163373ffffffffffffffffffffffffffffffffffffffff1614610767576040517f08c379a000000000000000000000000000000000000000000000000000000000815260040161075e90613176565b60405180910390fd5b61077081612756565b8060028190555050565b6000600860008381526020019081526020016000206040518060e00160405290816000820154815260200160018201548152602001600282015481526020016003820160009054906101000a900473ffffffffffffffffffffffffffffffffffffffff1673ffffffffffffffffffffffffffffffffffffffff1673ffffffffffffffffffffffffffffffffffffffff168152602001600482015481526020016005820160009054906101000a900473ffffffffffffffffffffffffffffffffffffffff1673ffffffffffffffffffffffffffffffffffffffff1673ffffffffffffffffffffffffffffffffffffffff1681526020016005820160149054906101000a900460ff1615151515815250509050600033905060008260000151116108d7576040517f08c379a00000000000000000000000000000000000000000000000000000000081526004016108ce906130b6565b60405180910390fd5b8160400151421161091d576040517f08c379a000000000000000000000000000000000000000000000000000000000815260040161091490613016565b60405180910390fd5b8160a0015173ffffffffffffffffffffffffffffffffffffffff168173ffffffffffffffffffffffffffffffffffffffff161415610990576040517f08c379a000000000000000000000000000000000000000000000000000000000815260040161098790613096565b60405180910390fd5b6000600660008460000151815260200190815260200160002060008373ffffffffffffffffffffffffffffffffffffffff1673ffffffffffffffffffffffffffffffffffffffff16815260200190815260200160002054905060008111610a2c576040517f08c379a0000000000000000000000000000000000000000000000000000000008152600401610a23906131f6565b60405180910390fd5b80471015610a6f576040517f08c379a0000000000000000000000000000000000000000000000000000000008152600401610a6690613196565b60405180910390fd5b6000600660008560000151815260200190815260200160002060008473ffffffffffffffffffffffffffffffffffffffff1673ffffffffffffffffffffffffffffffffffffffff16815260200190815260200160002081905550838273ffffffffffffffffffffffffffffffffffffffff163373ffffffffffffffffffffffffffffffffffffffff167f2ded5e48c30472e07c5bb1db8547099d3d6c43e72e5d9e68727f0cf5404db37c8487600001518860200151600660008b60000151815260200190815260200160002060008a73ffffffffffffffffffffffffffffffffffffffff1673ffffffffffffffffffffffffffffffffffffffff16815260200190815260200160002054604051610b899493929190613369565b60405180910390a48173ffffffffffffffffffffffffffffffffffffffff166108fc829081150290604051600060405180830381858888f19350505050158015610bd7573d6000803e3d6000fd5b5050505050565b60006008600083815260200190815260200160002090506000816000015411610c3c576040517f08c379a0000000000000000000000000000000000000000000000000000000008152600401610c33906130b6565b60405180910390fd5b80600201544211610c82576040517f08c379a0000000000000000000000000000000000000000000000000000000008152600401610c7990613016565b60405180910390fd5b6000816004015411610cc9576040517f08c379a0000000000000000000000000000000000000000000000000000000008152600401610cc090613116565b60405180910390fd5b8060050160009054906101000a900473ffffffffffffffffffffffffffffffffffffffff1673ffffffffffffffffffffffffffffffffffffffff163373ffffffffffffffffffffffffffffffffffffffff161480610d7657508060030160009054906101000a900473ffffffffffffffffffffffffffffffffffffffff1673ffffffffffffffffffffffffffffffffffffffff163373ffffffffffffffffffffffffffffffffffffffff16145b610db5576040517f08c379a0000000000000000000000000000000000000000000000000000000008152600401610dac90613056565b60405180910390fd5b6000600660008360000154815260200190815260200160002060008360050160009054906101000a900473ffffffffffffffffffffffffffffffffffffffff1673ffffffffffffffffffffffffffffffffffffffff1673ffffffffffffffffffffffffffffffffffffffff16815260200190815260200160002054905060008111610e75576040517f08c379a0000000000000000000000000000000000000000000000000000000008152600401610e6c90613216565b60405180910390fd5b6000826004015490506000610e8c826002546127e1565b9050610ea1818361285390919063ffffffff16565b915082471015610ee6576040517f08c379a0000000000000000000000000000000000000000000000000000000008152600401610edd90613196565b60405180910390fd5b8060016000828254610ef891906133bf565b9250508190555060018460050160146101000a81548160ff0219169083151502179055506000600660008660000154815260200190815260200160002060008660050160009054906101000a900473ffffffffffffffffffffffffffffffffffffffff1673ffffffffffffffffffffffffffffffffffffffff1673ffffffffffffffffffffffffffffffffffffffff1681526020019081526020016000208190555060008460030160009054906101000a900473ffffffffffffffffffffffffffffffffffffffff16905060008560050160009054906101000a900473ffffffffffffffffffffffffffffffffffffffff169050868660050160009054906101000a900473ffffffffffffffffffffffffffffffffffffffff1673ffffffffffffffffffffffffffffffffffffffff168760030160009054906101000a900473ffffffffffffffffffffffffffffffffffffffff1673ffffffffffffffffffffffffffffffffffffffff167fa28eec1e85a46c263c6095e4904166e207a7faf30a633d3d13e812051d87714389600001548a6001015460405161109c92919061329a565b60405180910390a486848373ffffffffffffffffffffffffffffffffffffffff167f175e3b4534afd7396f6d79665243574854327bfc388b771a3c5a2cf50cad152c868a600001548b600101546040516110f8939291906132c3565b60405180910390a4600061111987600401548761285390919063ffffffff16565b905060008111156111ea5787818860050160009054906101000a900473ffffffffffffffffffffffffffffffffffffffff1673ffffffffffffffffffffffffffffffffffffffff167f8bb1538c793d076f063df2847cf49fc4818972d119b4847ea197b428ac9bbac18a600001548b6001015460405161119a92919061329a565b60405180910390a48173ffffffffffffffffffffffffffffffffffffffff166108fc829081150290604051600060405180830381858888f193505050501580156111e8573d6000803e3d6000fd5b505b600360009054906101000a900473ffffffffffffffffffffffffffffffffffffffff1673ffffffffffffffffffffffffffffffffffffffff166342842e0e8860030160009054906101000a900473ffffffffffffffffffffffffffffffffffffffff168960050160009054906101000a900473ffffffffffffffffffffffffffffffffffffffff168a600101546040518463ffffffff1660e01b815260040161129593929190612f71565b600060405180830381600087803b1580156112af57600080fd5b505af11580156112c3573d6000803e3d6000fd5b505050508273ffffffffffffffffffffffffffffffffffffffff166108fc869081150290604051600060405180830381858888f1935050505015801561130d573d6000803e3d6000fd5b505050505050505050565b60006008600083815260200190815260200160002090506000349050600082600001541161137b576040517f08c379a0000000000000000000000000000000000000000000000000000000008152600401611372906130b6565b60405180910390fd5b8160030160009054906101000a900473ffffffffffffffffffffffffffffffffffffffff1673ffffffffffffffffffffffffffffffffffffffff163373ffffffffffffffffffffffffffffffffffffffff16141561140e576040517f08c379a000000000000000000000000000000000000000000000000000000000815260040161140590613036565b60405180910390fd5b8160020154421115611455576040517f08c379a000000000000000000000000000000000000000000000000000000000815260040161144c90613136565b60405180910390fd5b8160040154811161149b576040517f08c379a000000000000000000000000000000000000000000000000000000000815260040161149290613236565b60405180910390fd5b600060405180604001604052808381526020013373ffffffffffffffffffffffffffffffffffffffff168152509050600560008460000154815260200190815260200160002060003373ffffffffffffffffffffffffffffffffffffffff1673ffffffffffffffffffffffffffffffffffffffff1681526020019081526020016000208190806001815401808255809150506001900390600052602060002090600202016000909190919091506000820151816000015560208201518160010160006101000a81548173ffffffffffffffffffffffffffffffffffffffff021916908373ffffffffffffffffffffffffffffffffffffffff160217905550505081600660008560000154815260200190815260200160002060003373ffffffffffffffffffffffffffffffffffffffff1673ffffffffffffffffffffffffffffffffffffffff16815260200190815260200160002060008282546115ff91906133bf565b92505081905550818360040181905550338360050160006101000a81548173ffffffffffffffffffffffffffffffffffffffff021916908373ffffffffffffffffffffffffffffffffffffffff1602179055507f76c0839505115008147bd735b67477eb7de5861004ab444eed30608e5d1493d4338385600001548660010154600660008960000154815260200190815260200160002060003373ffffffffffffffffffffffffffffffffffffffff1673ffffffffffffffffffffffffffffffffffffffff168152602001908152602001600020546040516116e5959493929190612fa8565b60405180910390a150505050565b60086020528060005260406000206000915090508060000154908060010154908060020154908060030160009054906101000a900473ffffffffffffffffffffffffffffffffffffffff16908060040154908060050160009054906101000a900473ffffffffffffffffffffffffffffffffffffffff16908060050160149054906101000a900460ff16905087565b60008054906101000a900473ffffffffffffffffffffffffffffffffffffffff1673ffffffffffffffffffffffffffffffffffffffff163373ffffffffffffffffffffffffffffffffffffffff1614611810576040517f08c379a000000000000000000000000000000000000000000000000000000000815260040161180790613176565b60405180910390fd5b6000600154905060006118216123a3565b905060008190506000831161186b576040517f08c379a0000000000000000000000000000000000000000000000000000000008152600401611862906130d6565b60405180910390fd5b600073ffffffffffffffffffffffffffffffffffffffff168173ffffffffffffffffffffffffffffffffffffffff1614156118db576040517f08c379a00000000000000000000000000000000000000000000000000000000081526004016118d290613156565b60405180910390fd5b3073ffffffffffffffffffffffffffffffffffffffff168173ffffffffffffffffffffffffffffffffffffffff16141561194a576040517f08c379a0000000000000000000000000000000000000000000000000000000008152600401611941906131b6565b60405180910390fd5b8247101561198d576040517f08c379a000000000000000000000000000000000000000000000000000000000815260040161198490613196565b60405180910390fd5b60006001819055503373ffffffffffffffffffffffffffffffffffffffff16838373ffffffffffffffffffffffffffffffffffffffff167f437bacd84f6b52ae9b6aba5618f3378deef951bfca75859e8c2abcaac3b0a21d60405160405180910390a48073ffffffffffffffffffffffffffffffffffffffff166108fc849081150290604051600060405180830381858888f19350505050158015611a36573d6000803e3d6000fd5b50505050565b60008060009054906101000a900473ffffffffffffffffffffffffffffffffffffffff1673ffffffffffffffffffffffffffffffffffffffff163373ffffffffffffffffffffffffffffffffffffffff1614611acd576040517f08c379a0000000000000000000000000000000000000000000000000000000008152600401611ac490613176565b60405180910390fd5b600254905090565b60008054906101000a900473ffffffffffffffffffffffffffffffffffffffff1673ffffffffffffffffffffffffffffffffffffffff163373ffffffffffffffffffffffffffffffffffffffff1614611b63576040517f08c379a0000000000000000000000000000000000000000000000000000000008152600401611b5a90613176565b60405180910390fd5b6000600960006101000a81548160ff021916908315150217905550565b600080600860008481526020019081526020016000206040518060e00160405290816000820154815260200160018201548152602001600282015481526020016003820160009054906101000a900473ffffffffffffffffffffffffffffffffffffffff1673ffffffffffffffffffffffffffffffffffffffff1673ffffffffffffffffffffffffffffffffffffffff168152602001600482015481526020016005820160009054906101000a900473ffffffffffffffffffffffffffffffffffffffff1673ffffffffffffffffffffffffffffffffffffffff1673ffffffffffffffffffffffffffffffffffffffff1681526020016005820160149054906101000a900460ff16151515158152505090506000816000015111611cd9576040517f08c379a0000000000000000000000000000000000000000000000000000000008152600401611cd0906130b6565b60405180910390fd5b8060a00151915050919050565b600080600860008581526020019081526020016000206040518060e00160405290816000820154815260200160018201548152602001600282015481526020016003820160009054906101000a900473ffffffffffffffffffffffffffffffffffffffff1673ffffffffffffffffffffffffffffffffffffffff1673ffffffffffffffffffffffffffffffffffffffff168152602001600482015481526020016005820160009054906101000a900473ffffffffffffffffffffffffffffffffffffffff1673ffffffffffffffffffffffffffffffffffffffff1673ffffffffffffffffffffffffffffffffffffffff1681526020016005820160149054906101000a900460ff16151515158152505090506000816000015111611e3f576040517f08c379a0000000000000000000000000000000000000000000000000000000008152600401611e36906130b6565b60405180910390fd5b6000600560008360000151815260200190815260200160002060008573ffffffffffffffffffffffffffffffffffffffff1673ffffffffffffffffffffffffffffffffffffffff16815260200190815260200160002080549050905060008111611eae57600092505050611f63565b6000600182611ebd91906134a0565b9050600560008460000151815260200190815260200160002060008673ffffffffffffffffffffffffffffffffffffffff1673ffffffffffffffffffffffffffffffffffffffff1681526020019081526020016000208181548110611f4b577f4e487b7100000000000000000000000000000000000000000000000000000000600052603260045260246000fd5b90600052602060002090600202016000015493505050505b92915050565b60008060009054906101000a900473ffffffffffffffffffffffffffffffffffffffff1673ffffffffffffffffffffffffffffffffffffffff163373ffffffffffffffffffffffffffffffffffffffff1614611ffa576040517f08c379a0000000000000000000000000000000000000000000000000000000008152600401611ff190613176565b60405180910390fd5b600960009054906101000a900460ff16905090565b60008054906101000a900473ffffffffffffffffffffffffffffffffffffffff1673ffffffffffffffffffffffffffffffffffffffff163373ffffffffffffffffffffffffffffffffffffffff161461209d576040517f08c379a000000000000000000000000000000000000000000000000000000000815260040161209490613176565b60405180910390fd5b6001600960006101000a81548160ff021916908315150217905550565b6000600360009054906101000a900473ffffffffffffffffffffffffffffffffffffffff1673ffffffffffffffffffffffffffffffffffffffff16636352211e846040518263ffffffff1660e01b81526004016121179190613256565b60206040518083038186803b15801561212f57600080fd5b505afa158015612143573d6000803e3d6000fd5b505050506040513d601f19601f820116820180604052508101906121679190612921565b90508073ffffffffffffffffffffffffffffffffffffffff163373ffffffffffffffffffffffffffffffffffffffff16146121d7576040517f08c379a00000000000000000000000000000000000000000000000000000000081526004016121ce90613076565b60405180910390fd5b6121e16007612869565b6121eb6004612869565b60006121f7600761287f565b90506000612205600461287f565b905060008060006040518060e001604052808581526020018981526020018881526020013373ffffffffffffffffffffffffffffffffffffffff1681526020018481526020018373ffffffffffffffffffffffffffffffffffffffff168152602001600015158152509050806008600087815260200190815260200160002060008201518160000155602082015181600101556040820151816002015560608201518160030160006101000a81548173ffffffffffffffffffffffffffffffffffffffff021916908373ffffffffffffffffffffffffffffffffffffffff1602179055506080820151816004015560a08201518160050160006101000a81548173ffffffffffffffffffffffffffffffffffffffff021916908373ffffffffffffffffffffffffffffffffffffffff16021790555060c08201518160050160146101000a81548160ff0219169083151502179055509050508784867feb7c5d097ec886b3074780a42647e616d30bd119bc1c4de4ee0114d252f6afa98a33604051612391929190613271565b60405180910390a45050505050505050565b60008060009054906101000a900473ffffffffffffffffffffffffffffffffffffffff16905090565b600080600860008481526020019081526020016000206040518060e00160405290816000820154815260200160018201548152602001600282015481526020016003820160009054906101000a900473ffffffffffffffffffffffffffffffffffffffff1673ffffffffffffffffffffffffffffffffffffffff1673ffffffffffffffffffffffffffffffffffffffff168152602001600482015481526020016005820160009054906101000a900473ffffffffffffffffffffffffffffffffffffffff1673ffffffffffffffffffffffffffffffffffffffff1673ffffffffffffffffffffffffffffffffffffffff1681526020016005820160149054906101000a900460ff16151515158152505090506000816000015111612525576040517f08c379a000000000000000000000000000000000000000000000000000000000815260040161251c906130b6565b60405180910390fd5b8060800151915050919050565b60008060009054906101000a900473ffffffffffffffffffffffffffffffffffffffff1673ffffffffffffffffffffffffffffffffffffffff163373ffffffffffffffffffffffffffffffffffffffff16146125c3576040517f08c379a00000000000000000000000000000000000000000000000000000000081526004016125ba90613176565b60405180910390fd5b600360009054906101000a900473ffffffffffffffffffffffffffffffffffffffff16905090565b60008060009054906101000a900473ffffffffffffffffffffffffffffffffffffffff1673ffffffffffffffffffffffffffffffffffffffff163373ffffffffffffffffffffffffffffffffffffffff161461267c576040517f08c379a000000000000000000000000000000000000000000000000000000000815260040161267390613176565b60405180910390fd5b600154905090565b60008054906101000a900473ffffffffffffffffffffffffffffffffffffffff1673ffffffffffffffffffffffffffffffffffffffff163373ffffffffffffffffffffffffffffffffffffffff1614612712576040517f08c379a000000000000000000000000000000000000000000000000000000000815260040161270990613176565b60405180910390fd5b80600360006101000a81548173ffffffffffffffffffffffffffffffffffffffff021916908373ffffffffffffffffffffffffffffffffffffffff16021790555050565b600081101561279a576040517f08c379a0000000000000000000000000000000000000000000000000000000008152600401612791906131d6565b60405180910390fd5b60648111156127de576040517f08c379a00000000000000000000000000000000000000000000000000000000081526004016127d5906131d6565b60405180910390fd5b50565b6000808211612825576040517f08c379a000000000000000000000000000000000000000000000000000000000815260040161281c906130f6565b60405180910390fd5b61284b606461283d848661288d90919063ffffffff16565b6128a390919063ffffffff16565b905092915050565b6000818361286191906134a0565b905092915050565b6001816000016000828254019250508190555050565b600081600001549050919050565b6000818361289b9190613446565b905092915050565b600081836128b19190613415565b905092915050565b6000813590506128c88161357a565b92915050565b6000815190506128dd8161357a565b92915050565b6000813590506128f281613591565b92915050565b60006020828403121561290a57600080fd5b6000612918848285016128b9565b91505092915050565b60006020828403121561293357600080fd5b6000612941848285016128ce565b91505092915050565b60006020828403121561295c57600080fd5b600061296a848285016128e3565b91505092915050565b6000806040838503121561298657600080fd5b6000612994858286016128e3565b92505060206129a5858286016128b9565b9150509250929050565b600080604083850312156129c257600080fd5b60006129d0858286016128e3565b92505060206129e1858286016128e3565b9150509250929050565b6129f4816134d4565b82525050565b612a03816134e6565b82525050565b6000612a16601e836133ae565b91507f42696464696e6720706572696f64206973206e6f74206f7665722079657400006000830152602082019050919050565b6000612a56601d836133ae565b91507f4974656d206f776e65722063616e206e6f74206d616b652061206269640000006000830152602082019050919050565b6000612a96602d836133ae565b91507f43616c6c6572206d757374206265206869676865737420626964646572206f7260008301527f20746f6b656e206f776e65722e000000000000000000000000000000000000006020830152604082019050919050565b6000612afc6017836133ae565b91507f596f7520617265206e6f7420746f6b656e206f776e65720000000000000000006000830152602082019050919050565b6000612b3c6025836133ae565b91507f41756374696f6e2077696e6e65722063616e206e6f742077697468647261772060008301527f6d6f6e65790000000000000000000000000000000000000000000000000000006020830152604082019050919050565b6000612ba2601e836133ae565b91507f4974656d206e6f7420666f756e6420696e2061756374696f6e206c69737400006000830152602082019050919050565b6000612be26019836133ae565b91507f4e6f20636f6d6d697373696f6e20746f207769746864726177000000000000006000830152602082019050919050565b6000612c22601f836133ae565b91507f436f6d6d697373696f6e20726174652063616e206e6f74206265207a65726f006000830152602082019050919050565b6000612c62601b836133ae565b91507f48696768657374206269642063616e206e6f74206265207a65726f00000000006000830152602082019050919050565b6000612ca26016836133ae565b91507f42696464696e6720706572696f64206973206f766572000000000000000000006000830152602082019050919050565b6000612ce2601a836133ae565b91507f4e65656420612076616c696420706179656520616464726573730000000000006000830152602082019050919050565b6000612d22601a836133ae565b91507f596f7520617265206e6f7420636f6e7472616374206f776e65720000000000006000830152602082019050919050565b6000612d626025836133ae565b91507f436f6e747261637420646f6573206e6f74206861766520656e6f75676820626160008301527f6c616e63650000000000000000000000000000000000000000000000000000006020830152604082019050919050565b6000612dc86024836133ae565b91507f43616e206e6f7420776974686472617720746f20636f6e74726163742061646460008301527f72657373000000000000000000000000000000000000000000000000000000006020830152604082019050919050565b6000612e2e6017836133ae565b91507f496e76616c696420636f6d6d697373696f6e20726174650000000000000000006000830152602082019050919050565b6000612e6e601d836133ae565b91507f596f752068617665206e6f7468696e6720746f2077697468647261772e0000006000830152602082019050919050565b6000612eae6018836133ae565b91507f546f74616c2062696420616d6f756e74206973207a65726f00000000000000006000830152602082019050919050565b6000612eee6027836133ae565b91507f42696420616d6f756e74206d75737420626520686967686572207468616e206c60008301527f61737420626964000000000000000000000000000000000000000000000000006020830152604082019050919050565b612f5081613512565b82525050565b6000602082019050612f6b60008301846129eb565b92915050565b6000606082019050612f8660008301866129eb565b612f9360208301856129eb565b612fa06040830184612f47565b949350505050565b600060a082019050612fbd60008301886129eb565b612fca6020830187612f47565b612fd76040830186612f47565b612fe46060830185612f47565b612ff16080830184612f47565b9695505050505050565b600060208201905061301060008301846129fa565b92915050565b6000602082019050818103600083015261302f81612a09565b9050919050565b6000602082019050818103600083015261304f81612a49565b9050919050565b6000602082019050818103600083015261306f81612a89565b9050919050565b6000602082019050818103600083015261308f81612aef565b9050919050565b600060208201905081810360008301526130af81612b2f565b9050919050565b600060208201905081810360008301526130cf81612b95565b9050919050565b600060208201905081810360008301526130ef81612bd5565b9050919050565b6000602082019050818103600083015261310f81612c15565b9050919050565b6000602082019050818103600083015261312f81612c55565b9050919050565b6000602082019050818103600083015261314f81612c95565b9050919050565b6000602082019050818103600083015261316f81612cd5565b9050919050565b6000602082019050818103600083015261318f81612d15565b9050919050565b600060208201905081810360008301526131af81612d55565b9050919050565b600060208201905081810360008301526131cf81612dbb565b9050919050565b600060208201905081810360008301526131ef81612e21565b9050919050565b6000602082019050818103600083015261320f81612e61565b9050919050565b6000602082019050818103600083015261322f81612ea1565b9050919050565b6000602082019050818103600083015261324f81612ee1565b9050919050565b600060208201905061326b6000830184612f47565b92915050565b60006040820190506132866000830185612f47565b61329360208301846129eb565b9392505050565b60006040820190506132af6000830185612f47565b6132bc6020830184612f47565b9392505050565b60006060820190506132d86000830186612f47565b6132e56020830185612f47565b6132f26040830184612f47565b949350505050565b600060e08201905061330f600083018a612f47565b61331c6020830189612f47565b6133296040830188612f47565b61333660608301876129eb565b6133436080830186612f47565b61335060a08301856129eb565b61335d60c08301846129fa565b98975050505050505050565b600060808201905061337e6000830187612f47565b61338b6020830186612f47565b6133986040830185612f47565b6133a56060830184612f47565b95945050505050565b600082825260208201905092915050565b60006133ca82613512565b91506133d583613512565b9250827fffffffffffffffffffffffffffffffffffffffffffffffffffffffffffffffff0382111561340a5761340961351c565b5b828201905092915050565b600061342082613512565b915061342b83613512565b92508261343b5761343a61354b565b5b828204905092915050565b600061345182613512565b915061345c83613512565b9250817fffffffffffffffffffffffffffffffffffffffffffffffffffffffffffffffff04831182151516156134955761349461351c565b5b828202905092915050565b60006134ab82613512565b91506134b683613512565b9250828210156134c9576134c861351c565b5b828203905092915050565b60006134df826134f2565b9050919050565b60008115159050919050565b600073ffffffffffffffffffffffffffffffffffffffff82169050919050565b6000819050919050565b7f4e487b7100000000000000000000000000000000000000000000000000000000600052601160045260246000fd5b7f4e487b7100000000000000000000000000000000000000000000000000000000600052601260045260246000fd5b613583816134d4565b811461358e57600080fd5b50565b61359a81613512565b81146135a557600080fd5b5056fea264697066735822122076fc4018b430d77cecbcd893e32ce67d4c2dde2de10a5b1510052b1a9fd8187b64736f6c63430008000033",
  "immutableReferences": {},
  "source": "// SPDX-License-Identifier: GPL-3.0\npragma solidity ^0.8.0;\n\nimport \"@openzeppelin/contracts/utils/Counters.sol\";\nimport \"@openzeppelin/contracts/utils/math/SafeMath.sol\";\n\nimport './Ownable.sol';\nimport './NiftyToken.sol';\n\ncontract AuctionManager is Ownable {\n    \n    using Counters for Counters.Counter;\n    using SafeMath for uint;\n\n    // events\n    event BidPlaced(address _by, uint _amount, uint _itemId, uint _tokenId, uint _totalBidAmount);\n    event ItemListed(uint indexed _listId, uint indexed _itemId, uint indexed _tokenId, uint _biddingEndTimestamp,  address _by);\n    event Withdrawal(address indexed _by, address indexed _to, uint _amount, uint indexed _listId, uint _itemId, uint _tokenId, uint _totalBidAmountNow);\n    event TokenTransfered(address indexed _from, address indexed _to, uint indexed _listId, uint _itemId, uint _tokenId);\n    event MoneyTransfered(address indexed _to, uint indexed _amount, uint _commission, uint indexed _listId, uint _itemId, uint _tokenId);\n    event CommissionTransfered(address indexed _to, uint indexed _amount, address indexed _by);\n    event RemainingAmountTransfered(address indexed _to, uint indexed _amount, uint indexed _listId, uint _itemId, uint _tokenId);\n\n    // Commission\n    uint commission;\n    uint commissionRate;\n\n    // NiftyToken\n    address niftyTokenContractAddress;\n\n    // Item\n    Counters.Counter private itemCounter;\n    struct Item {\n        uint id;\n        uint tokenId;\n        uint biddingEndTimestamp;\n        address owner;\n        uint highestBid;\n        address highestBidder;\n        bool settled;\n    }    \n    struct Bid {\n        uint amount;\n        address by;\n    }\n    mapping(uint => mapping(address => Bid[])) itemBidList;\n    mapping(uint => mapping(address => uint)) itemTotalBidAmountList;\n\n    // Item List\n    Counters.Counter private listCounter;\n    mapping(uint => Item) public itemList;\n    \n    // Pausable\n    bool private paused;\n\n    constructor(address _niftyTokenContractAddress, uint _commissionRate) {\n        // Checks\n        validateCommissionRate(_commissionRate);\n    \n        niftyTokenContractAddress = _niftyTokenContractAddress;\n        commissionRate = _commissionRate;\n        paused = false;\n    }\n\n    // Modifiers\n    modifier notPaused {\n        require(paused == false, 'Contract is paused');\n        _;\n    }\n\n    // Public\n    function listItem(uint _tokenId, uint _biddingEndTimestamp) public {\n        // Checks\n        address owner = NiftyToken(niftyTokenContractAddress).ownerOf(_tokenId);\n        require(msg.sender == owner, 'You are not token owner');\n\n        // Get ids\n        listCounter.increment();\n        itemCounter.increment();\n        uint listId = listCounter.current();\n        uint itemId = itemCounter.current();\n\n        // Store item\n        uint _highestBid;\n        address _highestBidder;\n        Item memory item = Item(itemId, _tokenId, _biddingEndTimestamp, msg.sender, _highestBid, _highestBidder, false);\n        itemList[listId] = item;\n        \n        emit ItemListed(listId, itemId, _tokenId, _biddingEndTimestamp, msg.sender);\n    }\n    \n    function bidItem(uint _listId) public payable {\n        Item storage item = itemList[_listId];\n        \n        uint _amount = msg.value;\n\n        // Checks\n        require(item.id > 0, 'Item not found in auction list');\n        require(msg.sender != item.owner, 'Item owner can not make a bid');\n        require(block.timestamp <= item.biddingEndTimestamp, 'Bidding period is over');\n        require(_amount > item.highestBid, 'Bid amount must be higher than last bid');\n\n        // Store bid\n        Bid memory bid = Bid(_amount, msg.sender);\n        itemBidList[item.id][msg.sender].push(bid);\n        itemTotalBidAmountList[item.id][msg.sender] += _amount;\n        \n        // Record highest bid\n        item.highestBid = _amount;\n        item.highestBidder = msg.sender;\n        \n        emit BidPlaced(msg.sender, _amount, item.id, item.tokenId, itemTotalBidAmountList[item.id][msg.sender]);\n    }\n    \n    function lastBidAmount(uint _listId, address _by) public view returns(uint) {\n        Item memory item = itemList[_listId];\n\n        // Checks\n        require(item.id > 0, 'Item not found in auction list');\n        \n        uint totalBids = itemBidList[item.id][_by].length;\n        if (totalBids <= 0) return 0;\n\n        uint lastBidIndex = totalBids - 1;\n        return itemBidList[item.id][_by][lastBidIndex].amount;\n    }\n\n    function totalBidAmount(uint _listId, address _by) public view returns(uint) {\n        Item memory item = itemList[_listId];\n\n        // Checks\n        require(item.id > 0, 'Item not found in auction list');\n        \n        return itemTotalBidAmountList[item.id][_by];\n    }\n    \n    function highestBid(uint _listId) public view returns(uint) {\n        Item memory item = itemList[_listId];\n\n        // Checks\n        require(item.id > 0, 'Item not found in auction list');\n        \n        return item.highestBid;\n    }\n    \n    function highestBidder(uint _listId) public view returns(address) {\n        Item memory item = itemList[_listId];\n\n        // Checks\n        require(item.id > 0, 'Item not found in auction list');\n        \n        return item.highestBidder;\n    }\n\n    function withdraw(uint _listId) public {\n        Item memory item = itemList[_listId];\n\n        address payable to = payable(msg.sender);\n\n        // Checks\n        require(item.id > 0, 'Item not found in auction list');\n        require(block.timestamp > item.biddingEndTimestamp, 'Bidding period is not over yet');\n        require(to != item.highestBidder, 'Auction winner can not withdraw money');\n        \n        // Check user valid for withdrawal\n        uint totalAmount = itemTotalBidAmountList[item.id][to];\n        require(totalAmount > 0, 'You have nothing to withdraw.');\n        require(address(this).balance >= totalAmount, 'Contract does not have enough balance');\n        \n        // Effects\n        itemTotalBidAmountList[item.id][to] = 0;\n\n        emit Withdrawal(msg.sender, to, totalAmount, _listId, item.id, item.tokenId, itemTotalBidAmountList[item.id][to]);\n\n        to.transfer(totalAmount);\n    }\n\n    function settleAuction(uint _listId) public {\n        Item storage item = itemList[_listId];\n\n        // Checks\n        require(item.id > 0, 'Item not found in auction list');\n        require(block.timestamp > item.biddingEndTimestamp, 'Bidding period is not over yet');\n        require(item.highestBid > 0, 'Highest bid can not be zero');\n        require(msg.sender == item.highestBidder || msg.sender == item.owner, 'Caller must be highest bidder or token owner.');\n        \n        // Checks\n        uint totalAmount = itemTotalBidAmountList[item.id][item.highestBidder];\n        require(totalAmount > 0, 'Total bid amount is zero');\n        \n        // Checks\n        uint amount = item.highestBid;\n        uint totalCommission = calculateCommission(amount, commissionRate);\n        amount = amount.sub(totalCommission);\n        require(address(this).balance >= totalAmount, 'Contract does not have enough balance');\n\n        // Effects\n        commission += totalCommission;\n        item.settled = true;\n        itemTotalBidAmountList[item.id][item.highestBidder] = 0;\n\n        // Transfer\n        address payable itemOwner = payable(item.owner);\n        address payable winner = payable(item.highestBidder);\n\n        emit TokenTransfered(item.owner, item.highestBidder, _listId, item.id, item.tokenId);\n        emit MoneyTransfered(itemOwner, amount, totalCommission, _listId, item.id, item.tokenId);\n        \n        uint remainingAmount = totalAmount.sub(item.highestBid);\n        if (remainingAmount > 0) {\n            emit RemainingAmountTransfered(item.highestBidder, remainingAmount, _listId, item.id, item.tokenId);\n            winner.transfer(remainingAmount);\n        }\n        \n        NiftyToken(niftyTokenContractAddress).safeTransferFrom(item.owner, item.highestBidder, item.tokenId);\n        itemOwner.transfer(amount);\n    }\n\n    function calculateCommission(uint _amount, uint _commissionRate) internal pure returns(uint) {\n        // Checks\n        require(_commissionRate > 0, 'Commission rate can not be zero');\n        \n        return _amount.mul(_commissionRate).div(100);\n    }\n\n    // Admin\n    function getBalance() public view onlyOwner returns(uint) {\n        return address(this).balance;\n    }\n\n    function getCommission() public view onlyOwner returns(uint) {\n        return commission;\n    }\n\n    function getCommissionRate() public view onlyOwner returns(uint) {\n        return commissionRate;\n    }\n\n    function setCommissionRate(uint _commissionRate) public onlyOwner {\n        validateCommissionRate(_commissionRate);\n        \n        commissionRate = _commissionRate;\n    }\n\n    function getNiftyTokenContractAddress() public view onlyOwner returns(address) {\n        return niftyTokenContractAddress;\n    }\n\n    function setNiftyTokenContractAddress(address _niftyTokenContractAddress) public onlyOwner {       \n        niftyTokenContractAddress = _niftyTokenContractAddress;\n    }\n    \n    function withdrawCommission() public onlyOwner {\n        uint totalCommission = commission;\n        address owner = getOwner();\n        address payable to = payable(owner);\n\n        // Checks\n        require(totalCommission > 0, 'No commission to withdraw');\n        require(to != address(0), 'Need a valid payee address');\n        require(to != address(this), 'Can not withdraw to contract address');\n        require(address(this).balance >= totalCommission, 'Contract does not have enough balance');\n\n        // Effects\n        commission = 0;\n\n        emit CommissionTransfered(owner, totalCommission, msg.sender);\n\n        // Transfer\n        to.transfer(totalCommission);\n    }\n    \n\n    // Validators\n    function validateCommissionRate(uint _commissionRate) internal pure {\n        require(_commissionRate >= 0, 'Invalid commission rate');\n        require(_commissionRate <= 100, 'Invalid commission rate');\n    }\n\n    function getPaused() public view onlyOwner returns(bool) {\n        return paused;\n    }\n    \n    function pause() public onlyOwner {\n        paused = true;\n    }\n    \n    function unpause() public onlyOwner {\n        paused = false;\n    }\n}",
  "sourcePath": "/home/chirag/Documents/projects/codevally/nifty/niftyreact/contracts/AuctionManager.sol",
  "compiler": {
    "name": "solc",
    "version": "0.8.0+commit.c7dfd78e.Emscripten.clang"
  },
  "schemaVersion": "3.4.1",
  "updatedAt": "2021-07-05T06:09:38.985Z",
  "networkType": "ethereum",
  "devdoc": {
    "kind": "dev",
    "methods": {},
    "version": 1
  },
  "userdoc": {
    "kind": "user",
    "methods": {},
    "version": 1
  }
}