{
  "contractName": "AuctionManager",
  "abi": [
    {
      "inputs": [
        {
          "internalType": "address",
          "name": "_nftTokenContractAddress",
          "type": "address"
        },
        {
          "internalType": "uint256",
          "name": "_commissionRate",
          "type": "uint256"
        }
      ],
      "stateMutability": "nonpayable",
      "type": "constructor"
    },
    {
      "anonymous": false,
      "inputs": [
        {
          "indexed": false,
          "internalType": "address",
          "name": "_by",
          "type": "address"
        },
        {
          "indexed": false,
          "internalType": "uint256",
          "name": "_amount",
          "type": "uint256"
        },
        {
          "indexed": false,
          "internalType": "uint256",
          "name": "_itemId",
          "type": "uint256"
        },
        {
          "indexed": false,
          "internalType": "uint256",
          "name": "_tokenId",
          "type": "uint256"
        },
        {
          "indexed": false,
          "internalType": "uint256",
          "name": "_totalBidAmount",
          "type": "uint256"
        }
      ],
      "name": "BidPlaced",
      "type": "event"
    },
    {
      "anonymous": false,
      "inputs": [
        {
          "indexed": true,
          "internalType": "address",
          "name": "_to",
          "type": "address"
        },
        {
          "indexed": true,
          "internalType": "uint256",
          "name": "_amount",
          "type": "uint256"
        },
        {
          "indexed": true,
          "internalType": "address",
          "name": "_by",
          "type": "address"
        }
      ],
      "name": "CommissionTransfered",
      "type": "event"
    },
    {
      "anonymous": false,
      "inputs": [
        {
          "indexed": true,
          "internalType": "address",
          "name": "_to",
          "type": "address"
        },
        {
          "indexed": true,
          "internalType": "uint256",
          "name": "_amount",
          "type": "uint256"
        },
        {
          "indexed": true,
          "internalType": "address",
          "name": "by",
          "type": "address"
        }
      ],
      "name": "FundTransfered",
      "type": "event"
    },
    {
      "anonymous": false,
      "inputs": [
        {
          "indexed": true,
          "internalType": "uint256",
          "name": "_listId",
          "type": "uint256"
        },
        {
          "indexed": true,
          "internalType": "uint256",
          "name": "_itemId",
          "type": "uint256"
        },
        {
          "indexed": true,
          "internalType": "uint256",
          "name": "_tokenId",
          "type": "uint256"
        },
        {
          "indexed": false,
          "internalType": "uint256",
          "name": "_biddingEndTimestamp",
          "type": "uint256"
        },
        {
          "indexed": false,
          "internalType": "address",
          "name": "_by",
          "type": "address"
        }
      ],
      "name": "ItemListed",
      "type": "event"
    },
    {
      "anonymous": false,
      "inputs": [
        {
          "indexed": true,
          "internalType": "address",
          "name": "_to",
          "type": "address"
        },
        {
          "indexed": true,
          "internalType": "uint256",
          "name": "_amount",
          "type": "uint256"
        },
        {
          "indexed": false,
          "internalType": "uint256",
          "name": "_commission",
          "type": "uint256"
        },
        {
          "indexed": true,
          "internalType": "uint256",
          "name": "_listId",
          "type": "uint256"
        },
        {
          "indexed": false,
          "internalType": "uint256",
          "name": "_itemId",
          "type": "uint256"
        },
        {
          "indexed": false,
          "internalType": "uint256",
          "name": "_tokenId",
          "type": "uint256"
        }
      ],
      "name": "MoneyTransfered",
      "type": "event"
    },
    {
      "anonymous": false,
      "inputs": [
        {
          "indexed": true,
          "internalType": "address",
          "name": "_to",
          "type": "address"
        },
        {
          "indexed": true,
          "internalType": "uint256",
          "name": "_amount",
          "type": "uint256"
        },
        {
          "indexed": true,
          "internalType": "uint256",
          "name": "_listId",
          "type": "uint256"
        },
        {
          "indexed": false,
          "internalType": "uint256",
          "name": "_itemId",
          "type": "uint256"
        },
        {
          "indexed": false,
          "internalType": "uint256",
          "name": "_tokenId",
          "type": "uint256"
        }
      ],
      "name": "RemainingAmountTransfered",
      "type": "event"
    },
    {
      "anonymous": false,
      "inputs": [
        {
          "indexed": true,
          "internalType": "address",
          "name": "_from",
          "type": "address"
        },
        {
          "indexed": true,
          "internalType": "address",
          "name": "_to",
          "type": "address"
        },
        {
          "indexed": true,
          "internalType": "uint256",
          "name": "_listId",
          "type": "uint256"
        },
        {
          "indexed": false,
          "internalType": "uint256",
          "name": "_itemId",
          "type": "uint256"
        },
        {
          "indexed": false,
          "internalType": "uint256",
          "name": "_tokenId",
          "type": "uint256"
        }
      ],
      "name": "TokenTransfered",
      "type": "event"
    },
    {
      "anonymous": false,
      "inputs": [
        {
          "indexed": true,
          "internalType": "address",
          "name": "_by",
          "type": "address"
        },
        {
          "indexed": true,
          "internalType": "address",
          "name": "_to",
          "type": "address"
        },
        {
          "indexed": false,
          "internalType": "uint256",
          "name": "_amount",
          "type": "uint256"
        },
        {
          "indexed": true,
          "internalType": "uint256",
          "name": "_listId",
          "type": "uint256"
        },
        {
          "indexed": false,
          "internalType": "uint256",
          "name": "_itemId",
          "type": "uint256"
        },
        {
          "indexed": false,
          "internalType": "uint256",
          "name": "_tokenId",
          "type": "uint256"
        },
        {
          "indexed": false,
          "internalType": "uint256",
          "name": "_totalBidAmountNow",
          "type": "uint256"
        }
      ],
      "name": "Withdrawal",
      "type": "event"
    },
    {
      "inputs": [],
      "name": "getOwner",
      "outputs": [
        {
          "internalType": "address",
          "name": "",
          "type": "address"
        }
      ],
      "stateMutability": "view",
      "type": "function",
      "constant": true
    },
    {
      "inputs": [
        {
          "internalType": "uint256",
          "name": "",
          "type": "uint256"
        }
      ],
      "name": "itemList",
      "outputs": [
        {
          "internalType": "uint256",
          "name": "id",
          "type": "uint256"
        },
        {
          "internalType": "uint256",
          "name": "tokenId",
          "type": "uint256"
        },
        {
          "internalType": "uint256",
          "name": "biddingEndTimestamp",
          "type": "uint256"
        },
        {
          "internalType": "address",
          "name": "owner",
          "type": "address"
        },
        {
          "internalType": "uint256",
          "name": "highestBid",
          "type": "uint256"
        },
        {
          "internalType": "address",
          "name": "highestBidder",
          "type": "address"
        },
        {
          "internalType": "bool",
          "name": "settled",
          "type": "bool"
        }
      ],
      "stateMutability": "view",
      "type": "function",
      "constant": true
    },
    {
      "inputs": [
        {
          "internalType": "uint256",
          "name": "_tokenId",
          "type": "uint256"
        },
        {
          "internalType": "uint256",
          "name": "_biddingEndTimestamp",
          "type": "uint256"
        }
      ],
      "name": "listItem",
      "outputs": [],
      "stateMutability": "nonpayable",
      "type": "function"
    },
    {
      "inputs": [
        {
          "internalType": "uint256",
          "name": "_listId",
          "type": "uint256"
        }
      ],
      "name": "bidItem",
      "outputs": [],
      "stateMutability": "payable",
      "type": "function",
      "payable": true
    },
    {
      "inputs": [
        {
          "internalType": "uint256",
          "name": "_listId",
          "type": "uint256"
        },
        {
          "internalType": "address",
          "name": "_by",
          "type": "address"
        }
      ],
      "name": "lastBidAmount",
      "outputs": [
        {
          "internalType": "uint256",
          "name": "",
          "type": "uint256"
        }
      ],
      "stateMutability": "view",
      "type": "function",
      "constant": true
    },
    {
      "inputs": [
        {
          "internalType": "uint256",
          "name": "_listId",
          "type": "uint256"
        },
        {
          "internalType": "address",
          "name": "_by",
          "type": "address"
        }
      ],
      "name": "totalBidAmount",
      "outputs": [
        {
          "internalType": "uint256",
          "name": "",
          "type": "uint256"
        }
      ],
      "stateMutability": "view",
      "type": "function",
      "constant": true
    },
    {
      "inputs": [
        {
          "internalType": "uint256",
          "name": "_listId",
          "type": "uint256"
        }
      ],
      "name": "highestBid",
      "outputs": [
        {
          "internalType": "uint256",
          "name": "",
          "type": "uint256"
        }
      ],
      "stateMutability": "view",
      "type": "function",
      "constant": true
    },
    {
      "inputs": [
        {
          "internalType": "uint256",
          "name": "_listId",
          "type": "uint256"
        }
      ],
      "name": "highestBidder",
      "outputs": [
        {
          "internalType": "address",
          "name": "",
          "type": "address"
        }
      ],
      "stateMutability": "view",
      "type": "function",
      "constant": true
    },
    {
      "inputs": [
        {
          "internalType": "uint256",
          "name": "_listId",
          "type": "uint256"
        }
      ],
      "name": "withdraw",
      "outputs": [],
      "stateMutability": "nonpayable",
      "type": "function"
    },
    {
      "inputs": [
        {
          "internalType": "uint256",
          "name": "_listId",
          "type": "uint256"
        }
      ],
      "name": "settleAuction",
      "outputs": [],
      "stateMutability": "nonpayable",
      "type": "function"
    },
    {
      "inputs": [],
      "name": "getBalance",
      "outputs": [
        {
          "internalType": "uint256",
          "name": "",
          "type": "uint256"
        }
      ],
      "stateMutability": "view",
      "type": "function",
      "constant": true
    },
    {
      "inputs": [],
      "name": "getCommission",
      "outputs": [
        {
          "internalType": "uint256",
          "name": "",
          "type": "uint256"
        }
      ],
      "stateMutability": "view",
      "type": "function",
      "constant": true
    },
    {
      "inputs": [],
      "name": "getCommissionRate",
      "outputs": [
        {
          "internalType": "uint256",
          "name": "",
          "type": "uint256"
        }
      ],
      "stateMutability": "view",
      "type": "function",
      "constant": true
    },
    {
      "inputs": [
        {
          "internalType": "uint256",
          "name": "_commissionRate",
          "type": "uint256"
        }
      ],
      "name": "setCommissionRate",
      "outputs": [],
      "stateMutability": "nonpayable",
      "type": "function"
    },
    {
      "inputs": [],
      "name": "getNiftyTokenContractAddress",
      "outputs": [
        {
          "internalType": "address",
          "name": "",
          "type": "address"
        }
      ],
      "stateMutability": "view",
      "type": "function",
      "constant": true
    },
    {
      "inputs": [
        {
          "internalType": "address",
          "name": "_nftTokenContractAddress",
          "type": "address"
        }
      ],
      "name": "setNiftyTokenContractAddress",
      "outputs": [],
      "stateMutability": "nonpayable",
      "type": "function"
    },
    {
      "inputs": [],
      "name": "withdrawCommission",
      "outputs": [],
      "stateMutability": "nonpayable",
      "type": "function"
    },
    {
      "inputs": [
        {
          "internalType": "uint256",
          "name": "_amount",
          "type": "uint256"
        },
        {
          "internalType": "address",
          "name": "_to",
          "type": "address"
        }
      ],
      "name": "withdrawFund",
      "outputs": [],
      "stateMutability": "nonpayable",
      "type": "function"
    },
    {
      "inputs": [],
      "name": "getPaused",
      "outputs": [
        {
          "internalType": "bool",
          "name": "",
          "type": "bool"
        }
      ],
      "stateMutability": "view",
      "type": "function",
      "constant": true
    },
    {
      "inputs": [],
      "name": "pause",
      "outputs": [],
      "stateMutability": "nonpayable",
      "type": "function"
    },
    {
      "inputs": [],
      "name": "unpause",
      "outputs": [],
      "stateMutability": "nonpayable",
      "type": "function"
    }
  ],
  "bytecode": "0x60806040523480156200001157600080fd5b5060405162003ed538038062003ed58339818101604052810190620000379190620001b2565b336000806101000a81548173ffffffffffffffffffffffffffffffffffffffff021916908373ffffffffffffffffffffffffffffffffffffffff1602179055506200008881620000f360201b60201c565b81600360006101000a81548173ffffffffffffffffffffffffffffffffffffffff021916908373ffffffffffffffffffffffffffffffffffffffff160217905550806002819055506000600960006101000a81548160ff0219169083151502179055505050620002da565b60008110156200013a576040517f08c379a0000000000000000000000000000000000000000000000000000000008152600401620001319062000235565b60405180910390fd5b606481111562000181576040517f08c379a0000000000000000000000000000000000000000000000000000000008152600401620001789062000235565b60405180910390fd5b50565b6000815190506200019581620002a6565b92915050565b600081519050620001ac81620002c0565b92915050565b60008060408385031215620001c657600080fd5b6000620001d68582860162000184565b9250506020620001e9858286016200019b565b9150509250929050565b60006200020260178362000257565b91507f496e76616c696420636f6d6d697373696f6e20726174650000000000000000006000830152602082019050919050565b600060208201905081810360008301526200025081620001f3565b9050919050565b600082825260208201905092915050565b600062000275826200027c565b9050919050565b600073ffffffffffffffffffffffffffffffffffffffff82169050919050565b6000819050919050565b620002b18162000268565b8114620002bd57600080fd5b50565b620002cb816200029c565b8114620002d757600080fd5b50565b613beb80620002ea6000396000f3fe60806040526004361061012a5760003560e01c8063451df52e116100ab578063893d20e81161006f578063893d20e8146103af578063b14c63c5146103da578063cc2589cf14610417578063e65d6b4914610442578063fd152d841461046d578063ff15ebaf146104965761012a565b8063451df52e146102ca578063551d806e146103075780636805b84b146103445780638456cb591461036f578063883efa67146103865761012a565b806336d64076116100f257806336d64076146102125780633d4d36001461022e5780633e25e837146102715780633e4eb36c146102885780633f4ba83a146102b35761012a565b80630f3aab721461012f57806312065fe01461016c57806319fac8fd146101975780632e1a7d4d146101c05780632e993611146101e9575b600080fd5b34801561013b57600080fd5b5061015660048036038101906101519190612e60565b6104bf565b6040516101639190613863565b60405180910390f35b34801561017857600080fd5b50610181610676565b60405161018e9190613863565b60405180910390f35b3480156101a357600080fd5b506101be60048036038101906101b99190612e37565b61070d565b005b3480156101cc57600080fd5b506101e760048036038101906101e29190612e37565b6107ae565b005b3480156101f557600080fd5b50610210600480360381019061020b9190612e37565b610c68565b005b61022c60048036038101906102279190612e37565b611450565b005b34801561023a57600080fd5b5061025560048036038101906102509190612e37565b611881565b6040516102689796959493929190613907565b60405180910390f35b34801561027d57600080fd5b50610286611910565b005b34801561029457600080fd5b5061029d611bca565b6040516102aa9190613863565b60405180910390f35b3480156102bf57600080fd5b506102c8611c63565b005b3480156102d657600080fd5b506102f160048036038101906102ec9190612e37565b611d0e565b6040516102fe9190613503565b60405180910390f35b34801561031357600080fd5b5061032e60048036038101906103299190612e60565b611e74565b60405161033b9190613863565b60405180910390f35b34801561035057600080fd5b506103596120f7565b60405161036691906135a8565b60405180910390f35b34801561037b57600080fd5b5061038461219d565b005b34801561039257600080fd5b506103ad60048036038101906103a89190612e9c565b612248565b005b3480156103bb57600080fd5b506103c4612587565b6040516103d19190613503565b60405180910390f35b3480156103e657600080fd5b5061040160048036038101906103fc9190612e37565b6125b0565b60405161040e9190613863565b60405180910390f35b34801561042357600080fd5b5061042c612716565b6040516104399190613503565b60405180910390f35b34801561044e57600080fd5b506104576127cf565b6040516104649190613863565b60405180910390f35b34801561047957600080fd5b50610494600480360381019061048f9190612e60565b612868565b005b3480156104a257600080fd5b506104bd60048036038101906104b89190612de5565b612b71565b005b600080600860008581526020019081526020016000206040518060e00160405290816000820154815260200160018201548152602001600282015481526020016003820160009054906101000a900473ffffffffffffffffffffffffffffffffffffffff1673ffffffffffffffffffffffffffffffffffffffff1673ffffffffffffffffffffffffffffffffffffffff168152602001600482015481526020016005820160009054906101000a900473ffffffffffffffffffffffffffffffffffffffff1673ffffffffffffffffffffffffffffffffffffffff1673ffffffffffffffffffffffffffffffffffffffff1681526020016005820160149054906101000a900460ff16151515158152505090506000816000015111610618576040517f08c379a000000000000000000000000000000000000000000000000000000000815260040161060f906136a3565b60405180910390fd5b600660008260000151815260200190815260200160002060008473ffffffffffffffffffffffffffffffffffffffff1673ffffffffffffffffffffffffffffffffffffffff1681526020019081526020016000205491505092915050565b60008060009054906101000a900473ffffffffffffffffffffffffffffffffffffffff1673ffffffffffffffffffffffffffffffffffffffff163373ffffffffffffffffffffffffffffffffffffffff1614610707576040517f08c379a00000000000000000000000000000000000000000000000000000000081526004016106fe90613763565b60405180910390fd5b47905090565b60008054906101000a900473ffffffffffffffffffffffffffffffffffffffff1673ffffffffffffffffffffffffffffffffffffffff163373ffffffffffffffffffffffffffffffffffffffff161461079b576040517f08c379a000000000000000000000000000000000000000000000000000000000815260040161079290613763565b60405180910390fd5b6107a481612c43565b8060028190555050565b60001515600960009054906101000a900460ff16151514610804576040517f08c379a00000000000000000000000000000000000000000000000000000000081526004016107fb90613823565b60405180910390fd5b6000600860008381526020019081526020016000206040518060e00160405290816000820154815260200160018201548152602001600282015481526020016003820160009054906101000a900473ffffffffffffffffffffffffffffffffffffffff1673ffffffffffffffffffffffffffffffffffffffff1673ffffffffffffffffffffffffffffffffffffffff168152602001600482015481526020016005820160009054906101000a900473ffffffffffffffffffffffffffffffffffffffff1673ffffffffffffffffffffffffffffffffffffffff1673ffffffffffffffffffffffffffffffffffffffff1681526020016005820160149054906101000a900460ff161515151581525050905060003390506000826000015111610961576040517f08c379a0000000000000000000000000000000000000000000000000000000008152600401610958906136a3565b60405180910390fd5b816040015142116109a7576040517f08c379a000000000000000000000000000000000000000000000000000000000815260040161099e906135c3565b60405180910390fd5b8160a0015173ffffffffffffffffffffffffffffffffffffffff168173ffffffffffffffffffffffffffffffffffffffff161415610a1a576040517f08c379a0000000000000000000000000000000000000000000000000000000008152600401610a1190613683565b60405180910390fd5b6000600660008460000151815260200190815260200160002060008373ffffffffffffffffffffffffffffffffffffffff1673ffffffffffffffffffffffffffffffffffffffff16815260200190815260200160002054905060008111610ab6576040517f08c379a0000000000000000000000000000000000000000000000000000000008152600401610aad906137e3565b60405180910390fd5b80471015610af9576040517f08c379a0000000000000000000000000000000000000000000000000000000008152600401610af090613783565b60405180910390fd5b6000600660008560000151815260200190815260200160002060008473ffffffffffffffffffffffffffffffffffffffff1673ffffffffffffffffffffffffffffffffffffffff16815260200190815260200160002081905550838273ffffffffffffffffffffffffffffffffffffffff163373ffffffffffffffffffffffffffffffffffffffff167f2ded5e48c30472e07c5bb1db8547099d3d6c43e72e5d9e68727f0cf5404db37c8487600001518860200151600660008b60000151815260200190815260200160002060008a73ffffffffffffffffffffffffffffffffffffffff1673ffffffffffffffffffffffffffffffffffffffff16815260200190815260200160002054604051610c139493929190613976565b60405180910390a48173ffffffffffffffffffffffffffffffffffffffff166108fc829081150290604051600060405180830381858888f19350505050158015610c61573d6000803e3d6000fd5b5050505050565b60001515600960009054906101000a900460ff16151514610cbe576040517f08c379a0000000000000000000000000000000000000000000000000000000008152600401610cb590613823565b60405180910390fd5b60006008600083815260200190815260200160002090506000816000015411610d1c576040517f08c379a0000000000000000000000000000000000000000000000000000000008152600401610d13906136a3565b60405180910390fd5b80600201544211610d62576040517f08c379a0000000000000000000000000000000000000000000000000000000008152600401610d59906135c3565b60405180910390fd5b6000816004015411610da9576040517f08c379a0000000000000000000000000000000000000000000000000000000008152600401610da090613703565b60405180910390fd5b8060050160009054906101000a900473ffffffffffffffffffffffffffffffffffffffff1673ffffffffffffffffffffffffffffffffffffffff163373ffffffffffffffffffffffffffffffffffffffff161480610e5657508060030160009054906101000a900473ffffffffffffffffffffffffffffffffffffffff1673ffffffffffffffffffffffffffffffffffffffff163373ffffffffffffffffffffffffffffffffffffffff16145b610e95576040517f08c379a0000000000000000000000000000000000000000000000000000000008152600401610e8c90613603565b60405180910390fd5b600015158160050160149054906101000a900460ff16151514610eed576040517f08c379a0000000000000000000000000000000000000000000000000000000008152600401610ee490613663565b60405180910390fd5b6000600660008360000154815260200190815260200160002060008360050160009054906101000a900473ffffffffffffffffffffffffffffffffffffffff1673ffffffffffffffffffffffffffffffffffffffff1673ffffffffffffffffffffffffffffffffffffffff16815260200190815260200160002054905060008111610fad576040517f08c379a0000000000000000000000000000000000000000000000000000000008152600401610fa490613803565b60405180910390fd5b6000826004015490506000610fc482600254612cce565b9050610fd98183612d4090919063ffffffff16565b91508247101561101e576040517f08c379a000000000000000000000000000000000000000000000000000000000815260040161101590613783565b60405180910390fd5b806001600082825461103091906139cc565b9250508190555060018460050160146101000a81548160ff0219169083151502179055506000600660008660000154815260200190815260200160002060008660050160009054906101000a900473ffffffffffffffffffffffffffffffffffffffff1673ffffffffffffffffffffffffffffffffffffffff1673ffffffffffffffffffffffffffffffffffffffff1681526020019081526020016000208190555060008460030160009054906101000a900473ffffffffffffffffffffffffffffffffffffffff16905060008560050160009054906101000a900473ffffffffffffffffffffffffffffffffffffffff169050868660050160009054906101000a900473ffffffffffffffffffffffffffffffffffffffff1673ffffffffffffffffffffffffffffffffffffffff168760030160009054906101000a900473ffffffffffffffffffffffffffffffffffffffff1673ffffffffffffffffffffffffffffffffffffffff167fa28eec1e85a46c263c6095e4904166e207a7faf30a633d3d13e812051d87714389600001548a600101546040516111d49291906138a7565b60405180910390a486848373ffffffffffffffffffffffffffffffffffffffff167f175e3b4534afd7396f6d79665243574854327bfc388b771a3c5a2cf50cad152c868a600001548b60010154604051611230939291906138d0565b60405180910390a46000611251876004015487612d4090919063ffffffff16565b905060008111156113225787818860050160009054906101000a900473ffffffffffffffffffffffffffffffffffffffff1673ffffffffffffffffffffffffffffffffffffffff167f8bb1538c793d076f063df2847cf49fc4818972d119b4847ea197b428ac9bbac18a600001548b600101546040516112d29291906138a7565b60405180910390a48173ffffffffffffffffffffffffffffffffffffffff166108fc829081150290604051600060405180830381858888f19350505050158015611320573d6000803e3d6000fd5b505b600360009054906101000a900473ffffffffffffffffffffffffffffffffffffffff1673ffffffffffffffffffffffffffffffffffffffff166342842e0e8860030160009054906101000a900473ffffffffffffffffffffffffffffffffffffffff168960050160009054906101000a900473ffffffffffffffffffffffffffffffffffffffff168a600101546040518463ffffffff1660e01b81526004016113cd9392919061351e565b600060405180830381600087803b1580156113e757600080fd5b505af11580156113fb573d6000803e3d6000fd5b505050508273ffffffffffffffffffffffffffffffffffffffff166108fc869081150290604051600060405180830381858888f19350505050158015611445573d6000803e3d6000fd5b505050505050505050565b60001515600960009054906101000a900460ff161515146114a6576040517f08c379a000000000000000000000000000000000000000000000000000000000815260040161149d90613823565b60405180910390fd5b600060086000838152602001908152602001600020905060003490506000826000015411611509576040517f08c379a0000000000000000000000000000000000000000000000000000000008152600401611500906136a3565b60405180910390fd5b8160030160009054906101000a900473ffffffffffffffffffffffffffffffffffffffff1673ffffffffffffffffffffffffffffffffffffffff163373ffffffffffffffffffffffffffffffffffffffff16141561159c576040517f08c379a0000000000000000000000000000000000000000000000000000000008152600401611593906135e3565b60405180910390fd5b81600201544211156115e3576040517f08c379a00000000000000000000000000000000000000000000000000000000081526004016115da90613723565b60405180910390fd5b81600401548111611629576040517f08c379a000000000000000000000000000000000000000000000000000000000815260040161162090613843565b60405180910390fd5b600060405180604001604052808381526020013373ffffffffffffffffffffffffffffffffffffffff168152509050600560008460000154815260200190815260200160002060003373ffffffffffffffffffffffffffffffffffffffff1673ffffffffffffffffffffffffffffffffffffffff1681526020019081526020016000208190806001815401808255809150506001900390600052602060002090600202016000909190919091506000820151816000015560208201518160010160006101000a81548173ffffffffffffffffffffffffffffffffffffffff021916908373ffffffffffffffffffffffffffffffffffffffff160217905550505081600660008560000154815260200190815260200160002060003373ffffffffffffffffffffffffffffffffffffffff1673ffffffffffffffffffffffffffffffffffffffff168152602001908152602001600020600082825461178d91906139cc565b92505081905550818360040181905550338360050160006101000a81548173ffffffffffffffffffffffffffffffffffffffff021916908373ffffffffffffffffffffffffffffffffffffffff1602179055507f76c0839505115008147bd735b67477eb7de5861004ab444eed30608e5d1493d4338385600001548660010154600660008960000154815260200190815260200160002060003373ffffffffffffffffffffffffffffffffffffffff1673ffffffffffffffffffffffffffffffffffffffff16815260200190815260200160002054604051611873959493929190613555565b60405180910390a150505050565b60086020528060005260406000206000915090508060000154908060010154908060020154908060030160009054906101000a900473ffffffffffffffffffffffffffffffffffffffff16908060040154908060050160009054906101000a900473ffffffffffffffffffffffffffffffffffffffff16908060050160149054906101000a900460ff16905087565b60008054906101000a900473ffffffffffffffffffffffffffffffffffffffff1673ffffffffffffffffffffffffffffffffffffffff163373ffffffffffffffffffffffffffffffffffffffff161461199e576040517f08c379a000000000000000000000000000000000000000000000000000000000815260040161199590613763565b60405180910390fd5b6000600154905060006119af612587565b90506000819050600083116119f9576040517f08c379a00000000000000000000000000000000000000000000000000000000081526004016119f0906136c3565b60405180910390fd5b600073ffffffffffffffffffffffffffffffffffffffff168173ffffffffffffffffffffffffffffffffffffffff161415611a69576040517f08c379a0000000000000000000000000000000000000000000000000000000008152600401611a6090613743565b60405180910390fd5b3073ffffffffffffffffffffffffffffffffffffffff168173ffffffffffffffffffffffffffffffffffffffff161415611ad8576040517f08c379a0000000000000000000000000000000000000000000000000000000008152600401611acf906137a3565b60405180910390fd5b82471015611b1b576040517f08c379a0000000000000000000000000000000000000000000000000000000008152600401611b1290613783565b60405180910390fd5b60006001819055503373ffffffffffffffffffffffffffffffffffffffff16838373ffffffffffffffffffffffffffffffffffffffff167f437bacd84f6b52ae9b6aba5618f3378deef951bfca75859e8c2abcaac3b0a21d60405160405180910390a48073ffffffffffffffffffffffffffffffffffffffff166108fc849081150290604051600060405180830381858888f19350505050158015611bc4573d6000803e3d6000fd5b50505050565b60008060009054906101000a900473ffffffffffffffffffffffffffffffffffffffff1673ffffffffffffffffffffffffffffffffffffffff163373ffffffffffffffffffffffffffffffffffffffff1614611c5b576040517f08c379a0000000000000000000000000000000000000000000000000000000008152600401611c5290613763565b60405180910390fd5b600254905090565b60008054906101000a900473ffffffffffffffffffffffffffffffffffffffff1673ffffffffffffffffffffffffffffffffffffffff163373ffffffffffffffffffffffffffffffffffffffff1614611cf1576040517f08c379a0000000000000000000000000000000000000000000000000000000008152600401611ce890613763565b60405180910390fd5b6000600960006101000a81548160ff021916908315150217905550565b600080600860008481526020019081526020016000206040518060e00160405290816000820154815260200160018201548152602001600282015481526020016003820160009054906101000a900473ffffffffffffffffffffffffffffffffffffffff1673ffffffffffffffffffffffffffffffffffffffff1673ffffffffffffffffffffffffffffffffffffffff168152602001600482015481526020016005820160009054906101000a900473ffffffffffffffffffffffffffffffffffffffff1673ffffffffffffffffffffffffffffffffffffffff1673ffffffffffffffffffffffffffffffffffffffff1681526020016005820160149054906101000a900460ff16151515158152505090506000816000015111611e67576040517f08c379a0000000000000000000000000000000000000000000000000000000008152600401611e5e906136a3565b60405180910390fd5b8060a00151915050919050565b600080600860008581526020019081526020016000206040518060e00160405290816000820154815260200160018201548152602001600282015481526020016003820160009054906101000a900473ffffffffffffffffffffffffffffffffffffffff1673ffffffffffffffffffffffffffffffffffffffff1673ffffffffffffffffffffffffffffffffffffffff168152602001600482015481526020016005820160009054906101000a900473ffffffffffffffffffffffffffffffffffffffff1673ffffffffffffffffffffffffffffffffffffffff1673ffffffffffffffffffffffffffffffffffffffff1681526020016005820160149054906101000a900460ff16151515158152505090506000816000015111611fcd576040517f08c379a0000000000000000000000000000000000000000000000000000000008152600401611fc4906136a3565b60405180910390fd5b6000600560008360000151815260200190815260200160002060008573ffffffffffffffffffffffffffffffffffffffff1673ffffffffffffffffffffffffffffffffffffffff1681526020019081526020016000208054905090506000811161203c576000925050506120f1565b600060018261204b9190613aad565b9050600560008460000151815260200190815260200160002060008673ffffffffffffffffffffffffffffffffffffffff1673ffffffffffffffffffffffffffffffffffffffff16815260200190815260200160002081815481106120d9577f4e487b7100000000000000000000000000000000000000000000000000000000600052603260045260246000fd5b90600052602060002090600202016000015493505050505b92915050565b60008060009054906101000a900473ffffffffffffffffffffffffffffffffffffffff1673ffffffffffffffffffffffffffffffffffffffff163373ffffffffffffffffffffffffffffffffffffffff1614612188576040517f08c379a000000000000000000000000000000000000000000000000000000000815260040161217f90613763565b60405180910390fd5b600960009054906101000a900460ff16905090565b60008054906101000a900473ffffffffffffffffffffffffffffffffffffffff1673ffffffffffffffffffffffffffffffffffffffff163373ffffffffffffffffffffffffffffffffffffffff161461222b576040517f08c379a000000000000000000000000000000000000000000000000000000000815260040161222290613763565b60405180910390fd5b6001600960006101000a81548160ff021916908315150217905550565b60001515600960009054906101000a900460ff1615151461229e576040517f08c379a000000000000000000000000000000000000000000000000000000000815260040161229590613823565b60405180910390fd5b6000600360009054906101000a900473ffffffffffffffffffffffffffffffffffffffff1673ffffffffffffffffffffffffffffffffffffffff16636352211e846040518263ffffffff1660e01b81526004016122fb9190613863565b60206040518083038186803b15801561231357600080fd5b505afa158015612327573d6000803e3d6000fd5b505050506040513d601f19601f8201168201806040525081019061234b9190612e0e565b90508073ffffffffffffffffffffffffffffffffffffffff163373ffffffffffffffffffffffffffffffffffffffff16146123bb576040517f08c379a00000000000000000000000000000000000000000000000000000000081526004016123b290613623565b60405180910390fd5b6123c56007612d56565b6123cf6004612d56565b60006123db6007612d6c565b905060006123e96004612d6c565b905060008060006040518060e001604052808581526020018981526020018881526020013373ffffffffffffffffffffffffffffffffffffffff1681526020018481526020018373ffffffffffffffffffffffffffffffffffffffff168152602001600015158152509050806008600087815260200190815260200160002060008201518160000155602082015181600101556040820151816002015560608201518160030160006101000a81548173ffffffffffffffffffffffffffffffffffffffff021916908373ffffffffffffffffffffffffffffffffffffffff1602179055506080820151816004015560a08201518160050160006101000a81548173ffffffffffffffffffffffffffffffffffffffff021916908373ffffffffffffffffffffffffffffffffffffffff16021790555060c08201518160050160146101000a81548160ff0219169083151502179055509050508784867feb7c5d097ec886b3074780a42647e616d30bd119bc1c4de4ee0114d252f6afa98a3360405161257592919061387e565b60405180910390a45050505050505050565b60008060009054906101000a900473ffffffffffffffffffffffffffffffffffffffff16905090565b600080600860008481526020019081526020016000206040518060e00160405290816000820154815260200160018201548152602001600282015481526020016003820160009054906101000a900473ffffffffffffffffffffffffffffffffffffffff1673ffffffffffffffffffffffffffffffffffffffff1673ffffffffffffffffffffffffffffffffffffffff168152602001600482015481526020016005820160009054906101000a900473ffffffffffffffffffffffffffffffffffffffff1673ffffffffffffffffffffffffffffffffffffffff1673ffffffffffffffffffffffffffffffffffffffff1681526020016005820160149054906101000a900460ff16151515158152505090506000816000015111612709576040517f08c379a0000000000000000000000000000000000000000000000000000000008152600401612700906136a3565b60405180910390fd5b8060800151915050919050565b60008060009054906101000a900473ffffffffffffffffffffffffffffffffffffffff1673ffffffffffffffffffffffffffffffffffffffff163373ffffffffffffffffffffffffffffffffffffffff16146127a7576040517f08c379a000000000000000000000000000000000000000000000000000000000815260040161279e90613763565b60405180910390fd5b600360009054906101000a900473ffffffffffffffffffffffffffffffffffffffff16905090565b60008060009054906101000a900473ffffffffffffffffffffffffffffffffffffffff1673ffffffffffffffffffffffffffffffffffffffff163373ffffffffffffffffffffffffffffffffffffffff1614612860576040517f08c379a000000000000000000000000000000000000000000000000000000000815260040161285790613763565b60405180910390fd5b600154905090565b60008054906101000a900473ffffffffffffffffffffffffffffffffffffffff1673ffffffffffffffffffffffffffffffffffffffff163373ffffffffffffffffffffffffffffffffffffffff16146128f6576040517f08c379a00000000000000000000000000000000000000000000000000000000081526004016128ed90613763565b60405180910390fd5b60008211612939576040517f08c379a000000000000000000000000000000000000000000000000000000000815260040161293090613643565b60405180910390fd5b600073ffffffffffffffffffffffffffffffffffffffff168173ffffffffffffffffffffffffffffffffffffffff1614156129a9576040517f08c379a00000000000000000000000000000000000000000000000000000000081526004016129a090613743565b60405180910390fd5b3073ffffffffffffffffffffffffffffffffffffffff168173ffffffffffffffffffffffffffffffffffffffff161415612a18576040517f08c379a0000000000000000000000000000000000000000000000000000000008152600401612a0f906137a3565b60405180910390fd5b81471015612a5b576040517f08c379a0000000000000000000000000000000000000000000000000000000008152600401612a5290613783565b60405180910390fd5b8160015447612a6a9190613aad565b1015612aab576040517f08c379a0000000000000000000000000000000000000000000000000000000008152600401612aa290613783565b60405180910390fd5b600060015447612abb9190613aad565b90506000829050612aca612587565b73ffffffffffffffffffffffffffffffffffffffff16828473ffffffffffffffffffffffffffffffffffffffff167f6269de9884b5907a66cce6bfcea4af5ad6d25b986d6b3123e672040639b6214760405160405180910390a48073ffffffffffffffffffffffffffffffffffffffff166108fc839081150290604051600060405180830381858888f19350505050158015612b6a573d6000803e3d6000fd5b5050505050565b60008054906101000a900473ffffffffffffffffffffffffffffffffffffffff1673ffffffffffffffffffffffffffffffffffffffff163373ffffffffffffffffffffffffffffffffffffffff1614612bff576040517f08c379a0000000000000000000000000000000000000000000000000000000008152600401612bf690613763565b60405180910390fd5b80600360006101000a81548173ffffffffffffffffffffffffffffffffffffffff021916908373ffffffffffffffffffffffffffffffffffffffff16021790555050565b6000811015612c87576040517f08c379a0000000000000000000000000000000000000000000000000000000008152600401612c7e906137c3565b60405180910390fd5b6064811115612ccb576040517f08c379a0000000000000000000000000000000000000000000000000000000008152600401612cc2906137c3565b60405180910390fd5b50565b6000808211612d12576040517f08c379a0000000000000000000000000000000000000000000000000000000008152600401612d09906136e3565b60405180910390fd5b612d386064612d2a8486612d7a90919063ffffffff16565b612d9090919063ffffffff16565b905092915050565b60008183612d4e9190613aad565b905092915050565b6001816000016000828254019250508190555050565b600081600001549050919050565b60008183612d889190613a53565b905092915050565b60008183612d9e9190613a22565b905092915050565b600081359050612db581613b87565b92915050565b600081519050612dca81613b87565b92915050565b600081359050612ddf81613b9e565b92915050565b600060208284031215612df757600080fd5b6000612e0584828501612da6565b91505092915050565b600060208284031215612e2057600080fd5b6000612e2e84828501612dbb565b91505092915050565b600060208284031215612e4957600080fd5b6000612e5784828501612dd0565b91505092915050565b60008060408385031215612e7357600080fd5b6000612e8185828601612dd0565b9250506020612e9285828601612da6565b9150509250929050565b60008060408385031215612eaf57600080fd5b6000612ebd85828601612dd0565b9250506020612ece85828601612dd0565b9150509250929050565b612ee181613ae1565b82525050565b612ef081613af3565b82525050565b6000612f03601e836139bb565b91507f42696464696e6720706572696f64206973206e6f74206f7665722079657400006000830152602082019050919050565b6000612f43601d836139bb565b91507f4974656d206f776e65722063616e206e6f74206d616b652061206269640000006000830152602082019050919050565b6000612f83602d836139bb565b91507f43616c6c6572206d757374206265206869676865737420626964646572206f7260008301527f20746f6b656e206f776e65722e000000000000000000000000000000000000006020830152604082019050919050565b6000612fe96017836139bb565b91507f596f7520617265206e6f7420746f6b656e206f776e65720000000000000000006000830152602082019050919050565b60006130296016836139bb565b91507f416d6f756e742063616e206e6f74206265207a65726f000000000000000000006000830152602082019050919050565b6000613069601a836139bb565b91507f41756374696f6e20697320616c726561647920736574746c65640000000000006000830152602082019050919050565b60006130a96025836139bb565b91507f41756374696f6e2077696e6e65722063616e206e6f742077697468647261772060008301527f6d6f6e65790000000000000000000000000000000000000000000000000000006020830152604082019050919050565b600061310f601e836139bb565b91507f4974656d206e6f7420666f756e6420696e2061756374696f6e206c69737400006000830152602082019050919050565b600061314f6019836139bb565b91507f4e6f20636f6d6d697373696f6e20746f207769746864726177000000000000006000830152602082019050919050565b600061318f601f836139bb565b91507f436f6d6d697373696f6e20726174652063616e206e6f74206265207a65726f006000830152602082019050919050565b60006131cf601b836139bb565b91507f48696768657374206269642063616e206e6f74206265207a65726f00000000006000830152602082019050919050565b600061320f6016836139bb565b91507f42696464696e6720706572696f64206973206f766572000000000000000000006000830152602082019050919050565b600061324f601a836139bb565b91507f4e65656420612076616c696420706179656520616464726573730000000000006000830152602082019050919050565b600061328f601a836139bb565b91507f596f7520617265206e6f7420636f6e7472616374206f776e65720000000000006000830152602082019050919050565b60006132cf6025836139bb565b91507f436f6e747261637420646f6573206e6f74206861766520656e6f75676820626160008301527f6c616e63650000000000000000000000000000000000000000000000000000006020830152604082019050919050565b60006133356024836139bb565b91507f43616e206e6f7420776974686472617720746f20636f6e74726163742061646460008301527f72657373000000000000000000000000000000000000000000000000000000006020830152604082019050919050565b600061339b6017836139bb565b91507f496e76616c696420636f6d6d697373696f6e20726174650000000000000000006000830152602082019050919050565b60006133db601d836139bb565b91507f596f752068617665206e6f7468696e6720746f2077697468647261772e0000006000830152602082019050919050565b600061341b6018836139bb565b91507f546f74616c2062696420616d6f756e74206973207a65726f00000000000000006000830152602082019050919050565b600061345b6012836139bb565b91507f436f6e74726163742069732070617573656400000000000000000000000000006000830152602082019050919050565b600061349b6027836139bb565b91507f42696420616d6f756e74206d75737420626520686967686572207468616e206c60008301527f61737420626964000000000000000000000000000000000000000000000000006020830152604082019050919050565b6134fd81613b1f565b82525050565b60006020820190506135186000830184612ed8565b92915050565b60006060820190506135336000830186612ed8565b6135406020830185612ed8565b61354d60408301846134f4565b949350505050565b600060a08201905061356a6000830188612ed8565b61357760208301876134f4565b61358460408301866134f4565b61359160608301856134f4565b61359e60808301846134f4565b9695505050505050565b60006020820190506135bd6000830184612ee7565b92915050565b600060208201905081810360008301526135dc81612ef6565b9050919050565b600060208201905081810360008301526135fc81612f36565b9050919050565b6000602082019050818103600083015261361c81612f76565b9050919050565b6000602082019050818103600083015261363c81612fdc565b9050919050565b6000602082019050818103600083015261365c8161301c565b9050919050565b6000602082019050818103600083015261367c8161305c565b9050919050565b6000602082019050818103600083015261369c8161309c565b9050919050565b600060208201905081810360008301526136bc81613102565b9050919050565b600060208201905081810360008301526136dc81613142565b9050919050565b600060208201905081810360008301526136fc81613182565b9050919050565b6000602082019050818103600083015261371c816131c2565b9050919050565b6000602082019050818103600083015261373c81613202565b9050919050565b6000602082019050818103600083015261375c81613242565b9050919050565b6000602082019050818103600083015261377c81613282565b9050919050565b6000602082019050818103600083015261379c816132c2565b9050919050565b600060208201905081810360008301526137bc81613328565b9050919050565b600060208201905081810360008301526137dc8161338e565b9050919050565b600060208201905081810360008301526137fc816133ce565b9050919050565b6000602082019050818103600083015261381c8161340e565b9050919050565b6000602082019050818103600083015261383c8161344e565b9050919050565b6000602082019050818103600083015261385c8161348e565b9050919050565b600060208201905061387860008301846134f4565b92915050565b600060408201905061389360008301856134f4565b6138a06020830184612ed8565b9392505050565b60006040820190506138bc60008301856134f4565b6138c960208301846134f4565b9392505050565b60006060820190506138e560008301866134f4565b6138f260208301856134f4565b6138ff60408301846134f4565b949350505050565b600060e08201905061391c600083018a6134f4565b61392960208301896134f4565b61393660408301886134f4565b6139436060830187612ed8565b61395060808301866134f4565b61395d60a0830185612ed8565b61396a60c0830184612ee7565b98975050505050505050565b600060808201905061398b60008301876134f4565b61399860208301866134f4565b6139a560408301856134f4565b6139b260608301846134f4565b95945050505050565b600082825260208201905092915050565b60006139d782613b1f565b91506139e283613b1f565b9250827fffffffffffffffffffffffffffffffffffffffffffffffffffffffffffffffff03821115613a1757613a16613b29565b5b828201905092915050565b6000613a2d82613b1f565b9150613a3883613b1f565b925082613a4857613a47613b58565b5b828204905092915050565b6000613a5e82613b1f565b9150613a6983613b1f565b9250817fffffffffffffffffffffffffffffffffffffffffffffffffffffffffffffffff0483118215151615613aa257613aa1613b29565b5b828202905092915050565b6000613ab882613b1f565b9150613ac383613b1f565b925082821015613ad657613ad5613b29565b5b828203905092915050565b6000613aec82613aff565b9050919050565b60008115159050919050565b600073ffffffffffffffffffffffffffffffffffffffff82169050919050565b6000819050919050565b7f4e487b7100000000000000000000000000000000000000000000000000000000600052601160045260246000fd5b7f4e487b7100000000000000000000000000000000000000000000000000000000600052601260045260246000fd5b613b9081613ae1565b8114613b9b57600080fd5b50565b613ba781613b1f565b8114613bb257600080fd5b5056fea26469706673582212202361a958f8bdc88c3b47648695a18b81f404b08acefa53c006a88f03a7739ac964736f6c63430008000033",
  "immutableReferences": {},
  "source": "// SPDX-License-Identifier: GPL-3.0\npragma solidity ^0.8.0;\n\nimport \"@openzeppelin/contracts/utils/Counters.sol\";\nimport \"@openzeppelin/contracts/utils/math/SafeMath.sol\";\n\nimport './Ownable.sol';\nimport './NFTToken.sol';\n\ncontract AuctionManager is Ownable {\n    \n    using Counters for Counters.Counter;\n    using SafeMath for uint;\n\n    // events\n    event BidPlaced(address _by, uint _amount, uint _itemId, uint _tokenId, uint _totalBidAmount);\n    event ItemListed(uint indexed _listId, uint indexed _itemId, uint indexed _tokenId, uint _biddingEndTimestamp,  address _by);\n    event Withdrawal(address indexed _by, address indexed _to, uint _amount, uint indexed _listId, uint _itemId, uint _tokenId, uint _totalBidAmountNow);\n    event TokenTransfered(address indexed _from, address indexed _to, uint indexed _listId, uint _itemId, uint _tokenId);\n    event MoneyTransfered(address indexed _to, uint indexed _amount, uint _commission, uint indexed _listId, uint _itemId, uint _tokenId);\n    event CommissionTransfered(address indexed _to, uint indexed _amount, address indexed _by);\n    event RemainingAmountTransfered(address indexed _to, uint indexed _amount, uint indexed _listId, uint _itemId, uint _tokenId);\n    event FundTransfered(address indexed _to, uint indexed _amount, address indexed by);\n\n    // Commission\n    uint commission;\n    uint commissionRate;\n\n    // NFTToken\n    address nftTokenContractAddress;\n\n    // Item\n    Counters.Counter private itemCounter;\n    struct Item {\n        uint id;\n        uint tokenId;\n        uint biddingEndTimestamp;\n        address owner;\n        uint highestBid;\n        address highestBidder;\n        bool settled;\n    }    \n    struct Bid {\n        uint amount;\n        address by;\n    }\n    mapping(uint => mapping(address => Bid[])) itemBidList;\n    mapping(uint => mapping(address => uint)) itemTotalBidAmountList;\n\n    // Item List\n    Counters.Counter private listCounter;\n    mapping(uint => Item) public itemList;\n    \n    // Pausable\n    bool private paused;\n\n    constructor(address _nftTokenContractAddress, uint _commissionRate) {\n        // Checks\n        validateCommissionRate(_commissionRate);\n    \n        nftTokenContractAddress = _nftTokenContractAddress;\n        commissionRate = _commissionRate;\n        paused = false;\n    }\n\n    // Modifiers\n    modifier notPaused {\n        require(paused == false, 'Contract is paused');\n        _;\n    }\n\n    // Public\n    function listItem(uint _tokenId, uint _biddingEndTimestamp) public notPaused {\n        // Checks\n        address owner = NFTToken(nftTokenContractAddress).ownerOf(_tokenId);\n        require(msg.sender == owner, 'You are not token owner');\n\n        // Get ids\n        listCounter.increment();\n        itemCounter.increment();\n        uint listId = listCounter.current();\n        uint itemId = itemCounter.current();\n\n        // Store item\n        uint _highestBid;\n        address _highestBidder;\n        Item memory item = Item(itemId, _tokenId, _biddingEndTimestamp, msg.sender, _highestBid, _highestBidder, false);\n        itemList[listId] = item;\n        \n        emit ItemListed(listId, itemId, _tokenId, _biddingEndTimestamp, msg.sender);\n    }\n    \n    function bidItem(uint _listId) public payable notPaused {\n        Item storage item = itemList[_listId];\n        \n        uint _amount = msg.value;\n\n        // Checks\n        require(item.id > 0, 'Item not found in auction list');\n        require(msg.sender != item.owner, 'Item owner can not make a bid');\n        require(block.timestamp <= item.biddingEndTimestamp, 'Bidding period is over');\n        require(_amount > item.highestBid, 'Bid amount must be higher than last bid');\n\n        // Store bid\n        Bid memory bid = Bid(_amount, msg.sender);\n        itemBidList[item.id][msg.sender].push(bid);\n        itemTotalBidAmountList[item.id][msg.sender] += _amount;\n        \n        // Record highest bid\n        item.highestBid = _amount;\n        item.highestBidder = msg.sender;\n        \n        emit BidPlaced(msg.sender, _amount, item.id, item.tokenId, itemTotalBidAmountList[item.id][msg.sender]);\n    }\n    \n    function lastBidAmount(uint _listId, address _by) public view returns(uint) {\n        Item memory item = itemList[_listId];\n\n        // Checks\n        require(item.id > 0, 'Item not found in auction list');\n        \n        uint totalBids = itemBidList[item.id][_by].length;\n        if (totalBids <= 0) return 0;\n\n        uint lastBidIndex = totalBids - 1;\n        return itemBidList[item.id][_by][lastBidIndex].amount;\n    }\n\n    function totalBidAmount(uint _listId, address _by) public view returns(uint) {\n        Item memory item = itemList[_listId];\n\n        // Checks\n        require(item.id > 0, 'Item not found in auction list');\n        \n        return itemTotalBidAmountList[item.id][_by];\n    }\n    \n    function highestBid(uint _listId) public view returns(uint) {\n        Item memory item = itemList[_listId];\n\n        // Checks\n        require(item.id > 0, 'Item not found in auction list');\n        \n        return item.highestBid;\n    }\n    \n    function highestBidder(uint _listId) public view returns(address) {\n        Item memory item = itemList[_listId];\n\n        // Checks\n        require(item.id > 0, 'Item not found in auction list');\n        \n        return item.highestBidder;\n    }\n\n    function withdraw(uint _listId) public notPaused {\n        Item memory item = itemList[_listId];\n\n        address payable to = payable(msg.sender);\n\n        // Checks\n        require(item.id > 0, 'Item not found in auction list');\n        require(block.timestamp > item.biddingEndTimestamp, 'Bidding period is not over yet');\n        require(to != item.highestBidder, 'Auction winner can not withdraw money');\n        \n        // Check user valid for withdrawal\n        uint totalAmount = itemTotalBidAmountList[item.id][to];\n        require(totalAmount > 0, 'You have nothing to withdraw.');\n        require(address(this).balance >= totalAmount, 'Contract does not have enough balance');\n        \n        // Effects\n        itemTotalBidAmountList[item.id][to] = 0;\n\n        emit Withdrawal(msg.sender, to, totalAmount, _listId, item.id, item.tokenId, itemTotalBidAmountList[item.id][to]);\n\n        to.transfer(totalAmount);\n    }\n\n    function settleAuction(uint _listId) public notPaused {\n        Item storage item = itemList[_listId];\n\n        // Checks\n        require(item.id > 0, 'Item not found in auction list');\n        require(block.timestamp > item.biddingEndTimestamp, 'Bidding period is not over yet');\n        require(item.highestBid > 0, 'Highest bid can not be zero');\n        require(msg.sender == item.highestBidder || msg.sender == item.owner, 'Caller must be highest bidder or token owner.');\n        require(item.settled == false, 'Auction is already settled');\n        \n        // Checks\n        uint totalAmount = itemTotalBidAmountList[item.id][item.highestBidder];\n        require(totalAmount > 0, 'Total bid amount is zero');\n        \n        // Checks\n        uint amount = item.highestBid;\n        uint totalCommission = calculateCommission(amount, commissionRate);\n        amount = amount.sub(totalCommission);\n        require(address(this).balance >= totalAmount, 'Contract does not have enough balance');\n\n        // Effects\n        commission += totalCommission;\n        item.settled = true;\n        itemTotalBidAmountList[item.id][item.highestBidder] = 0;\n\n        // Transfer\n        address payable itemOwner = payable(item.owner);\n        address payable winner = payable(item.highestBidder);\n\n        emit TokenTransfered(item.owner, item.highestBidder, _listId, item.id, item.tokenId);\n        emit MoneyTransfered(itemOwner, amount, totalCommission, _listId, item.id, item.tokenId);\n        \n        uint remainingAmount = totalAmount.sub(item.highestBid);\n        if (remainingAmount > 0) {\n            emit RemainingAmountTransfered(item.highestBidder, remainingAmount, _listId, item.id, item.tokenId);\n            winner.transfer(remainingAmount);\n        }\n        \n        NFTToken(nftTokenContractAddress).safeTransferFrom(item.owner, item.highestBidder, item.tokenId);\n        itemOwner.transfer(amount);\n    }\n\n    function calculateCommission(uint _amount, uint _commissionRate) internal pure returns(uint) {\n        // Checks\n        require(_commissionRate > 0, 'Commission rate can not be zero');\n        \n        return _amount.mul(_commissionRate).div(100);\n    }\n\n    // Admin\n    function getBalance() public view onlyOwner returns(uint) {\n        return address(this).balance;\n    }\n\n    function getCommission() public view onlyOwner returns(uint) {\n        return commission;\n    }\n\n    function getCommissionRate() public view onlyOwner returns(uint) {\n        return commissionRate;\n    }\n\n    function setCommissionRate(uint _commissionRate) public onlyOwner {\n        validateCommissionRate(_commissionRate);\n        \n        commissionRate = _commissionRate;\n    }\n\n    function getNiftyTokenContractAddress() public view onlyOwner returns(address) {\n        return nftTokenContractAddress;\n    }\n\n    function setNiftyTokenContractAddress(address _nftTokenContractAddress) public onlyOwner {       \n        nftTokenContractAddress = _nftTokenContractAddress;\n    }\n    \n    function withdrawCommission() public onlyOwner {\n        uint totalCommission = commission;\n        address owner = getOwner();\n        address payable to = payable(owner);\n\n        // Checks\n        require(totalCommission > 0, 'No commission to withdraw');\n        require(to != address(0), 'Need a valid payee address');\n        require(to != address(this), 'Can not withdraw to contract address');\n        require(address(this).balance >= totalCommission, 'Contract does not have enough balance');\n\n        // Effects\n        commission = 0;\n\n        emit CommissionTransfered(owner, totalCommission, msg.sender);\n\n        // Transfer\n        to.transfer(totalCommission);\n    }\n\n    function withdrawFund(uint _amount, address _to) public onlyOwner {\n        // Checks\n        require(_amount > 0, 'Amount can not be zero');\n        require(_to != address(0), 'Need a valid payee address');\n        require(_to != address(this), 'Can not withdraw to contract address');\n        require(address(this).balance >= _amount, 'Contract does not have enough balance');\n        require(address(this).balance - commission >= _amount, 'Contract does not have enough balance');\n\n        // Effects\n        uint amount = address(this).balance - commission;\n        address payable to = payable(_to);\n\n        emit FundTransfered(_to, amount, getOwner());\n\n        // Transfer\n        to.transfer(amount);\n    }\n    \n\n    // Validators\n    function validateCommissionRate(uint _commissionRate) internal pure {\n        require(_commissionRate >= 0, 'Invalid commission rate');\n        require(_commissionRate <= 100, 'Invalid commission rate');\n    }\n\n    function getPaused() public view onlyOwner returns(bool) {\n        return paused;\n    }\n    \n    function pause() public onlyOwner {\n        paused = true;\n    }\n    \n    function unpause() public onlyOwner {\n        paused = false;\n    }\n}",
  "sourcePath": "/home/chirag/Documents/projects/codevally/nifty/virtualfashion/contracts/AuctionManager.sol",
  "compiler": {
    "name": "solc",
    "version": "0.8.0+commit.c7dfd78e.Emscripten.clang"
  },
  "schemaVersion": "3.4.2",
  "updatedAt": "2021-07-28T13:33:08.607Z",
  "networkType": "ethereum",
  "devdoc": {
    "kind": "dev",
    "methods": {},
    "version": 1
  },
  "userdoc": {
    "kind": "user",
    "methods": {},
    "version": 1
  }
}